:100000000EC0D5C01CC01BC01AC01AC018C017C073
:1000100016C015C014C013C012C011C010C01124E6
:100020001FBECFE5D2E0DEBFCDBF20E0A0E6B0E04E
:1000300001C01D92A137B207E1F750D587C8E0CFC4
:100040001F920F920FB60F9211248F939F93AF932D
:10005000BF9380916C0090916D00A0916E00B09163
:100060006F000196A11DB11D80936C0090936D00EF
:10007000A0936E00B0936F00809164009091650032
:10008000A0916600B09167000196A11DB11D8093FB
:10009000640090936500A0936600B0936700809120
:1000A000680090916900A0916A00B0916B00019680
:1000B000A11DB11D8093680090936900A0936A0010
:1000C000B0936B00BF91AF919F918F910F900FBE36
:1000D0000F901F901895F894809168009091690096
:1000E000A0916A00B0916B0022B778946627782FB0
:1000F000892F9A2F622B0895F89480916C0090912B
:100100006D00A0916E00B0916F0022B778946627C1
:10011000782F892F9A2F622B0895F894809164008C
:1001200090916500A0916600B091670022B7789425
:100130006627782F892F9A2F622B0895F8941ABC7E
:1001400082E083BF12BE89B7826089BF10926800C7
:100150001092690010926A0010926B0010926C006D
:1001600010926D0010926E0010926F001092640059
:1001700010926500109266001092670078940895BE
:10018000BA98C298B99AB898C098089587B3837FEF
:1001900087BB88B3837F88BB88E184BB80E886B94E
:1001A00083E287B986B1876086B9369A08951F922F
:1001B0000F920FB60F9211242F938F939F93AF93AB
:1001C000BF93B29B1EC080916C0090916D00A09176
:1001D0006E00B0916F0022B7BA2FA92F982F8827F1
:1001E000822B8093600090936100A0936200B09393
:1001F000630010926C0010926D0010926E001092CD
:100200006F00BF91AF919F918F912F910F900FBE73
:100210000F901F90189583E085BF80E48BBF0895F1
:10022000863010F480E20895823110F480E1089560
:10023000823210F488E00895803310F487E0089546
:100240008F3310F486E008958D3410F485E008951E
:100250008B3510F484E00895893610F483E0089516
:10026000873710F482E0089513C40F931F938A0117
:100270009B01803409F45AC0803209F474C0803183
:1002800009F48AC08C30E9F1883009F49AC08730CB
:1002900009F4A6C0863009F4B6C0853009F4C2C09E
:1002A000843009F4D5C0833009F4DDC0823009F40C
:1002B000E5C0813019F18F3F09F18E3F09F4C1C0CB
:1002C0008D3F09F4E2C08C3F09F4E9C08B3F09F48B
:1002D000F1C08A3F09F4F8C0893F09F4FFC0883FA4
:1002E00009F406C1843F09F417C1803F09F41EC117
:1002F000803E09F429C1803C09F404C1C901B80158
:1003000012C0CB01BA01660F771F881F991F600FBB
:10031000711F821F931F660F771F881F991F660F1B
:10032000771F881F991F1F910F910895CB01BA0164
:10033000660F771F881F991F660F771F881F991FE9
:10034000660F771F881F991F660F771F881F991FD9
:10035000660F771F881F991F660F771F881F991FC9
:100360001F910F910895CB01BA01660F771F881F67
:10037000991F660F771F881F991F660F771F881FA9
:10038000991F660F771F881F991F660F771F881F99
:10039000991F1F910F910895CB01BA01660F771F26
:1003A000881F991F660F771F881F991F660F771F79
:1003B000881F991F660F771F881F991F1F910F9124
:1003C0000895CB01BA01660F771F881F991F660F2A
:1003D000771F881F991F660F771F881F991FA3CF4C
:1003E000CB01BA01660F771F881F991F660F771F11
:1003F000881F991F660F771F881F991F601B710B3D
:10040000820B930B90CFCB01BA01660F771F881F29
:10041000991F600F711F821F931F660F771F881F20
:10042000991F81CFCB01BA01660F771F881F991FD3
:10043000660F771F881F991F600F711F821F931F00
:1004400072CFCB01BA0196958795779567956BCF5B
:10045000CB01BA01660F771F881F991F660F771FA0
:10046000881F991F60CFCB01BA01660F771F881FC5
:10047000991F600F711F821F931F55CFCB01BA01C7
:10048000660F771F881F991F4ECFCB01BA0123E05B
:1004900030E040E050E038D6CA01B90144CFCB018A
:1004A000BA019695879577956795969587957795EF
:1004B000679539CFCB01BA0125E030E040E050E04C
:1004C00023D6CA01B9012FCFCB01BA0126E030E013
:1004D00040E050E019D6CA01B90125CFCB01BA01DD
:1004E00027E030E040E050E00FD6CA01B9011BCF51
:1004F000CB01BA0153E096958795779567955A9504
:10050000D1F711CFCB01BA0126E096958795779563
:1005100067952A95D1F707CFCB01BA012CE030E0DF
:1005200040E050E0F1D5CA01B901FDCECB01BA01DE
:1005300044E096958795779567954A95D1F76C59DC
:100540007F4F8F4F9F4FEFCECB01BA0135E096958D
:100550008795779567953A95D1F7E5CECF92DF925B
:10056000EF92FF920F931F938A019B01E82FE09572
:10057000E430F8F4013345E714072105310508F4A8
:100580004BC060E177E280E090E000511742210922
:100590003109EA3F28F4061717072807390710F42E
:1005A000C901B8011F910F91FF90EF90DF90CF909C
:1005B0000895EE30B0F4CB01BA0145E096958795E9
:1005C000779567954A95D1F7013345E714072105DB
:1005D000310540F3603147E274078105910588F2E7
:1005E000D4CFE83148F1E23288F5CB01BA01F5E029
:1005F0009695879577956795FA95D1F76801790172
:10060000A4E0F694E794D794C794AA95D1F76C0D1B
:100610007D1D8E1D9F1DD8CFC901B80156E096954E
:100620008795779567955A95D1F71F910F91FF9010
:10063000EF90DF90CF900895CB01BA01B4E096958A
:10064000879577956795BA95D1F7BECFEC32C8F00C
:10065000E63308F5CB01BA01B5E096958795779515
:100660006795BA95D1F76801790143E0F694E7946C
:10067000D794C7944A95D1F76C0D7D1D8E1D9F1D93
:10068000A3CFCB01BA0153E09695879577956795EF
:100690005A95D1F799CFE034B8F4CB01BA01F4E020
:1006A0009695879577956795FA95D1F768017901C1
:1006B000A3E0F694E794D794C794AA95D1F76C0D6C
:1006C0007D1D8E1D9F1D80CFEA3420F5CB01BA0120
:1006D000B4E09695879577956795BA95D1F76801B7
:1006E000790143E0F694E794D794C7944A95D1F7FB
:1006F0006C0D7D1D8E1D9F1D6801790155E0F694DE
:10070000E794D794C7945A95D1F76C0D7D1D8E1D33
:100710009F1D5ACFE53558F4CB01BA0196958795C0
:100720007795679596958795779567954DCFEE3533
:10073000C0F4CB01BA0154E09695879577956795FB
:100740005A95D1F768017901F694E794D794C79444
:10075000F694E794D794C7946C0D7D1D8E1D9F1D54
:1007600033CFE836C0F4CB01BA01B3E09695879554
:1007700077956795BA95D1F768017901F694E79472
:10078000D794C794F694E794D794C7946C0D7D1DC5
:100790008E1D9F1D19CFE23728F5CB01BA0153E01A
:1007A00096958795779567955A95D1F76801790160
:1007B000F694E794D794C794F694E794D794C794A3
:1007C0006C0D7D1D8E1D9F1D68017901A4E0F694BE
:1007D000E794D794C794AA95D1F76C0D7D1D8E1D13
:1007E0009F1DF2CEEC3838F4CB01BA01969587956F
:1007F00077956795E9CEE639A0F4CB01BA01A5E07B
:100800009695879577956795AA95D1F768017901AF
:10081000F694E794D794C7946C0D7D1D8E1D9F1D93
:10082000D3CEE03AA0F4CB01BA0154E09695879577
:10083000779567955A95D1F768017901F694E79411
:10084000D794C7946C0D7D1D8E1D9F1DBDCEEA3AB9
:1008500008F5CB01BA0144E09695879577956795A1
:100860004A95D1F768017901F694E794D794C79433
:100870006C0D7D1D8E1D9F1D6801790155E0F6945C
:10088000E794D794C7945A95D1F76C0D7D1D8E1DB2
:100890009F1D9ACEE43BA0F4CB01BA01A3E096954C
:1008A000879577956795AA95D1F768017901F694B0
:1008B000E794D794C7946C0D7D1D8E1D9F1D84CE2B
:1008C000EE3B50F4CB01BA01F3E09695879577950E
:1008D0006795FA95D1F7C6CFE83C08F5CB01BA0188
:1008E000B3E09695879577956795BA95D1F76801A6
:1008F0007901F694E794D794C7946C0D7D1D8E1DF5
:100900009F1D6801790154E0F694E794D794C79449
:100910005A95D1F76C0D7D1D8E1D9F1D55CEE23D64
:1009200070F5CB01BA0143E0969587957795679569
:100930004A95D1F768017901F694E794D794C79462
:100940006C0D7D1D8E1D9F1D68017901F4E0F694EC
:10095000E794D794C794FA95D1F76C0D7D1D8E1D41
:100960009F1D68017901A5E0F694E794D794C79498
:10097000AA95D1F76C0D7D1D8E1D9F1D25CEEC3DDA
:10098000A8F4CB01BA0196958795779567959695CA
:1009900087957795679568017901F694E794D794E0
:1009A000C7946C0D7D1D8E1D9F1D0ECEE63E58F426
:1009B000CB01BA019695879577956795969587951A
:1009C0007795679594CFE03F10F5CB01BA019695E6
:1009D000879577956795969587957795679568013B
:1009E0007901F694E794D794C7946C0D7D1D8E1D04
:1009F0009F1D68017901B3E0F694E794D794C794FA
:100A0000BA95D1F76C0D7D1D8E1D9F1DDDCDEA3F82
:100A100078F5CB01BA019695879577956795969568
:100A200087957795679568017901F694E794D7944F
:100A3000C7946C0D7D1D8E1D9F1D6801790143E0DB
:100A4000F694E794D794C7944A95D1F76C0D7D1D21
:100A50008E1D9F1D6801790154E0F694E794D794A8
:100A6000C7945A95D1F76C0D7D1D8E1D9F1DACCD81
:100A7000F5E07695679557954795FA95D1F7680112
:100A80007901C41AD50AE60AF70AC701B6019CCD56
:100A9000843890F0813990F08F3990F08D3A90F051
:100AA0008B3B90F0893C90F0883D90F0863E90F032
:100AB000833F90F484EF089581E008958EEF0895C8
:100AC0008DEF08958CEF08958BEF08958AEF0895C8
:100AD00089EF089588EF089580EF0895CF93DF930D
:100AE000CDB7DEB76A970FB6F894DEBF0FBECDBFA5
:100AF000F8941ABC82E083BF12BE89B7826089BFB6
:100B0000109268001092690010926A0010926B00B7
:100B100010926C0010926D0010926E0010926F0097
:100B200010926400109265001092660010926700A7
:100B3000789426DB83E085BF80E48BBF27DB8FE1E1
:100B40009EE40197F1F700C00000C1981F8218864B
:100B500019861A861B8600E01D821E821D8623E0F0
:100B6000298B31E039832FE72F873FE7388B21E04E
:100B70002E871C8610E0212C312CC12CD12C760123
:100B800060E070E0CB01812C912C5401412C512C60
:100B900032012FE730E03D8B2C8B3B8B2A8B4E8A2A
:100BA0005F8A688E798E31E03A8FB29B77C120914F
:100BB0006000309161004091620050916300232BEE
:100BC000242B252B09F46AC14090600050906100ED
:100BD00060906200709063004E8A5F8A688E798EA2
:100BE00010926000109261001092620010926300F7
:100BF000F8941092640010926500109266001092B2
:100C0000670078942889263008F09EC120E2722E71
:100C10004E895F89688D798D872D27DB4B015C01BB
:100C2000AB01BC018F859ADC7A8E3D85313009F0AD
:100C300078C12A8D223009F4B7C01D863E813F5FFE
:100C40003E83333028F02A8D233009F4A7C01E825A
:100C50002D812F5F2D83243028F03A8D343009F414
:100C6000A0C01D820F5F053028F03A8D353009F4A1
:100C700092C000E03B853F5F3B87363028F02A8DED
:100C8000263009F47FC01B862A852F5F2A872730EC
:100C900028F03A8D373009F478C01A8639853F5FDD
:100CA0003987383028F02A8D283009F468C0198631
:100CB00028852F5F2887203128F03A8D303109F4BC
:100CC0005BC018863F813F5F3F83303228F02A8D1A
:100CD000203209F45DC01F82B09B0FC111111DC1EC
:100CE000C198F894C0906400D0906500E0906600D0
:100CF000F090670022B7FE2CED2CDC2CCC24C22A0D
:100D000078941F82188619861A861B8600E01D8239
:100D10001E821D861E8621E02C8711E03A8D32301E
:100D20000CF4F0C08C149D04AE04BF0418F4C12C64
:100D3000D12C7601F89420916400309165004091A7
:100D4000660050916700E2B77894542F432F322FFA
:100D500022272E2B2C153D054E055F0538F15E84AC
:100D6000552021F11E8681149104A104B10431F5AE
:100D700021E02C87C1985DC021E02E87A2CF31E011
:100D80003E8795CF31E03E877ECF21E02E8785CF0D
:100D900031E03E87A0CF21E02E876BCF31E03E8748
:100DA00056CF21E02E875DCF3E8747CF8114910437
:100DB000A104B104F9F26C84662059F0F894109201
:100DC00068001092690010926A0010926B0078948B
:100DD000C19AF894209168003091690040916A00AE
:100DE00050916B00E2B7542F432F322F22272E2B26
:100DF0007894261737074807590708F0C1988216D4
:100E00009306A406B50608F08AC0281939094A09CC
:100E10005B09232F342F452F5527F8942093680022
:100E20003093690040936A0050936B007894C19AA4
:100E30001C862FEF221A320A35E6231631040CF4F1
:100E4000B4CE349BB2CE349A75B02989233009F4DC
:100E500081C033E2632E67B8369A2F85721608F088
:100E600068C02A893B8927193109442737FD4095F5
:100E7000542F243031054105510508F455C0B50102
:100E8000A401872D6BDB7F8623E0298B212C312C5D
:100E9000472C512C5B8A4A8AB29989CEF8942091CA
:100EA0006400309165004091660050916700E2B7A0
:100EB0007894542F432F322F22272E2B4E885F8871
:100EC000688C798C440C551C661C771C42165306A2
:100ED0006406750608F000CF1F82188619861A86E8
:100EE0001B8600E01D821E821D86C12CD12C76013E
:100EF000812C912C5401B099F1CE10E03A8D323012
:100F00000CF010CF4E885F88688C798C4C145D048F
:100F10006E047F0408F40BCF0DCF11E0FFCE1C86CA
:100F200088CF21E02D878ACE23E0298B212C312CFC
:100F30003CCE272D30E04A885B88241935094427A8
:100F400037FD4095542F95CF223108F046C090E1EF
:100F5000792E5ECE32E237B9369A4888741448F555
:100F60002C893D8927193109442737FD4095542F95
:100F7000223031054105510558F155E0552E5714E1
:100F800088F120E22A8F822F4E895F89688D798DC2
:100F90006CD94B015C01AB01BC018F85DFDA788A2B
:100FA00032E0398B212C312C472C512C5D8A4C8A14
:100FB000FCCD272D30E04C885D8824193509442765
:100FC00037FD4095542F2230310541055105A8F6D3
:100FD00022E0298B212C312CE8CD223258F488E0F4
:100FE000782E16CE41E1642E671448F030E13A8F36
:100FF000832FCACF203350F4B7E07B2E09CE21E2F5
:10100000271548F028E02A8F822FBECF2F3350F4C7
:10101000A6E07A2EFDCD3FE2371548F037E03A8F53
:10102000832FB2CF2D3450F4F5E07F2EF1CD4EE377
:10103000471548F026E02A8F822FA6CF2B3550F493
:10104000E4E07E2EE5CD5CE4571548F035E03A8FBC
:10105000832F9ACF293650F473E0772ED9CD8AE5C5
:10106000871548F024E02A8F822F8ECF273750F43F
:1010700062E0762ECDCD98E69715C8F033E03A8F32
:10108000832F82CF822F04DD8A8F4E895F89688DFE
:10109000798DEBD84B015C01AB01BC018F855EDA29
:1010A0003A8D32300CF0C1CD21E02E87BECDA6E7BF
:1010B000A71520F022E02A8F822F66CF872DE8DC4B
:1010C000382E4E895F89688D798DCFD84B015C01B0
:1010D000AB01BC018F8542DAB0EF3B1213C02A8D01
:1010E000203F09F45CCF20EF2A8F788A32E0398BD9
:1010F000212C312CC12CD12C7601472C512C5D8A0E
:101100004C8A53CD3A8E4BCFA1E21A2EAA1BBB1BA1
:10111000FD010DC0AA1FBB1FEE1FFF1FA217B307C3
:10112000E407F50720F0A21BB30BE40BF50B661FD9
:10113000771F881F991F1A9469F76095709580959D
:1011400090959B01AC01BD01CF010895F894FFCFAC
:00000001FF
