:100000000EC0E0C027C026C025C025C023C022C026
:1000100021C020C01FC01EC01DC01CC01BC0112499
:100020001FBECFE5D2E0DEBFCDBF10E0A0E6B0E05E
:10003000EEE2F3E102C005900D92A437B107D9F7C3
:1000400020E0A4E7B0E001C01D92A538B207E1F7B7
:10005000C4D46BC9D5CF1F920F920FB60F92112443
:100060008F939F93AF93BF93809180009091810075
:10007000A0918200B09183000196A11DB11D8093D3
:10008000800090938100A0938200B09383008091C0
:10009000780090917900A0917A00B0917B00019650
:1000A000A11DB11D8093780090937900A0937A00F0
:1000B000B0937B0080917C0090917D00A0917E00A8
:1000C000B0917F000196A11DB11D80937C0090939B
:1000D0007D00A0937E00B0937F00BF91AF919F9170
:1000E0008F910F900FBE0F901F901895F8948091EC
:1000F0007C0090917D00A0917E00B0917F0022B79E
:1001000078946627782F892F9A2F622B0895F89478
:100110008091800090918100A0918200B091830035
:1001200022B778946627782F892F9A2F622B08950B
:10013000F8948091780090917900A0917A00B09124
:100140007B0022B778946627782F892F9A2F622B0D
:100150000895F8941ABC82E083BF12BE89B782600A
:1001600089BF10927C0010927D0010927E00109248
:100170007F001092800010928100109282001092F5
:100180008300109278001092790010927A001092F9
:100190007B0078940895BA98C298B99AB898C09894
:1001A000089587B3837F87BB88B3837F88BB88E14B
:1001B00084BB80E886B983E287B986B1876086B957
:1001C000369A08951F920F920FB60F9211242F9313
:1001D0008F939F93AF93BF93B29B1EC0809180007B
:1001E00090918100A0918200B091830022B7BA2F34
:1001F000A92F982F8827822B8093740090937500E5
:10020000A0937600B0937700109280001092810046
:100210001092820010928300BF91AF919F918F91B5
:100220002F910F900FBE0F901F90189583E085BF00
:1002300080E48BBF0895863020F1823140F1823214
:1002400040F1803340F18F3340F18D34F0F08B3545
:1002500030F1893630F1873730F1843830F1813927
:1002600030F18F3930F18D3A30F18B3B30F1893CF0
:1002700030F1883D30F1863E30F1833F20F48EEE40
:10028000089581E008958DEE08958AEF08958EEF28
:1002900008958DEF08958CEF08958BEF089589EF01
:1002A000089588EF089587EF089586EF089585EF04
:1002B000089584EF089583EF089582EF089581EF04
:1002C000089580EF08958FEE0895CF92DF92EF9218
:1002D000FF929A01AB01803409F443C0803209F4E3
:1002E0005FC0803109F477C0883041F1843009F46F
:1002F00089C0823009F491C091E0980F933008F4DE
:1003000093C08E3F09F4A1C08C3F09F4A5C0883F7B
:1003100009F4ADC0803F09F48AC087FDB2C0682FE0
:10032000772767FD7095872F972F7FD7A32FF42FFF
:10033000E52F622F7A2F8F2F9E2F0EC0CA01B90191
:10034000660F771F881F991F660F771F881F991FD9
:10035000660F771F881F991FFF90EF90DF90CF9057
:100360000895CA01B901660F771F881F991F660F8C
:10037000771F881F991F660F771F881F991F660FA9
:10038000771F881F991F660F771F881F991F660F99
:10039000771F881F991FFF90EF90DF90CF900895EF
:1003A000CA01B901660F771F881F991F660F771F53
:1003B000881F991F660F771F881F991F660F771F69
:1003C000881F991F660F771F881F991FFF90EF9056
:1003D000DF90CF900895CA01B901660F771F881F7B
:1003E000991F660F771F881F991F660F771F881F39
:1003F000991F660F771F881F991FFF90EF90DF905E
:10040000CF900895CA01B901660F771F881F991F01
:10041000660F771F881F991F9FCFCA01B901660F0A
:10042000771F881F991F98CFCA01B90195CFCA01BC
:10043000B90124E096958795779567952A95D1F728
:100440006C597F4F8F4F9F4F87CFCA01B901969547
:1004500087957795679580CFCA01B901969587955D
:1004600077956795969587957795679575CFCA0126
:10047000B90133E096958795779567953A95D1F7C9
:100480006BCF682F772761950CF470956B01EE2484
:10049000D7FCE094FE2CCA01B901A7019601A1D6B0
:1004A000CA01B90159CFCF92DF92EF92FF920F9319
:1004B0001F938A019B01E82FE095E430F8F40133A3
:1004C00045E714072105310508F44BC060E177E2E8
:1004D00080E090E00051174221093109EA3F28F4F9
:1004E000061717072807390710F4C901B8011F912B
:1004F0000F91FF90EF90DF90CF900895EE30B0F421
:10050000CB01BA01F5E09695879577956795FA95B1
:10051000D1F7013345E714072105310540F3603178
:1005200047E274078105910588F2D4CFE83148F19C
:10053000E23288F5CB01BA01B5E0969587957795BB
:100540006795BA95D1F76801790144E0F694E7948C
:10055000D794C7944A95D1F76C0D7D1D8E1D9F1DB4
:10056000D8CFC901B801A6E096958795779567958C
:10057000AA95D1F71F910F91FF90EF90DF90CF9048
:100580000895CB01BA0154E09695879577956795C4
:100590005A95D1F7BECFEC32C8F0E63308F5CB015F
:1005A000BA0155E096958795779567955A95D1F755
:1005B00068017901F3E0F694E794D794C794FA952B
:1005C000D1F76C0D7D1D8E1D9F1DA3CFCB01BA01F0
:1005D000A3E09695879577956795AA95D1F799CFDA
:1005E000E034B8F4CB01BA01B4E0969587957795DD
:1005F0006795BA95D1F76801790143E0F694E794DD
:10060000D794C7944A95D1F76C0D7D1D8E1D9F1D03
:1006100080CFEA3420F5CB01BA0154E09695879556
:10062000779567955A95D1F768017901F3E0F694CB
:10063000E794D794C794FA95D1F76C0D7D1D8E1D64
:100640009F1D68017901A5E0F694E794D794C794BB
:10065000AA95D1F76C0D7D1D8E1D9F1D5ACFE535D6
:1006600058F4CB01BA01969587957795679596953D
:100670008795779567954DCFEE35C0F4CB01BA01DC
:10068000A4E09695879577956795AA95D1F7680127
:100690007901F694E794D794C794F694E794D794A5
:1006A000C7946C0D7D1D8E1D9F1D33CFE836C0F4A1
:1006B000CB01BA0153E096958795779567955A9542
:1006C000D1F768017901F694E794D794C794F6942A
:1006D000E794D794C7946C0D7D1D8E1D9F1D19CF77
:1006E000E23728F5CB01BA01A3E096958795779577
:1006F0006795AA95D1F768017901F694E794D794A4
:10070000C794F694E794D794C7946C0D7D1D8E1D05
:100710009F1D6801790144E0F694E794D794C7944B
:100720004A95D1F76C0D7D1D8E1D9F1DF2CEEC38C4
:1007300038F4CB01BA019695879577956795E9CE00
:10074000E639A0F4CB01BA0145E0969587957795F7
:1007500067954A95D1F768017901F694E794D794A3
:10076000C7946C0D7D1D8E1D9F1DD3CEE03AA0F465
:10077000CB01BA01A4E09695879577956795AA95E0
:10078000D1F768017901F694E794D794C7946C0D7A
:100790007D1D8E1D9F1DBDCEEA3A08F5CB01BA0125
:1007A000F4E09695879577956795FA95D1F7680166
:1007B0007901F694E794D794C7946C0D7D1D8E1D36
:1007C0009F1D68017901A5E0F694E794D794C7943A
:1007D000AA95D1F76C0D7D1D8E1D9F1D9ACEE43B11
:1007E000A0F4CB01BA0143E096958795779567957C
:1007F0004A95D1F768017901F694E794D794C794A4
:100800006C0D7D1D8E1D9F1D84CEEE3B50F4CB01E3
:10081000BA01B3E09695879577956795BA95D1F724
:10082000C6CFE83C08F5CB01BA0153E09695879511
:10083000779567955A95D1F768017901F694E79411
:10084000D794C7946C0D7D1D8E1D9F1D6801790185
:10085000A4E0F694E794D794C794AA95D1F76C0DC9
:100860007D1D8E1D9F1D55CEE23D70F5CB01BA0159
:10087000F3E09695879577956795FA95D1F7680196
:100880007901F694E794D794C7946C0D7D1D8E1D65
:100890009F1D68017901B4E0F694E794D794C7945A
:1008A000BA95D1F76C0D7D1D8E1D9F1D68017901D4
:1008B00045E0F694E794D794C7944A95D1F76C0D28
:1008C0007D1D8E1D9F1D25CEEC3DA8F4CB01BA01E8
:1008D000969587957795679596958795779567957A
:1008E00068017901F694E794D794C7946C0D7D1D47
:1008F0008E1D9F1D0ECEE63E58F4CB01BA01969593
:10090000879577956795969587957795679594CF11
:10091000E03F10F5CB01BA019695879577956795DD
:10092000969587957795679568017901F694E79490
:10093000D794C7946C0D7D1D8E1D9F1D6801790194
:1009400053E0F694E794D794C7945A95D1F76C0D79
:100950007D1D8E1D9F1DDDCDEA3F78F5CB01BA01CF
:1009600096958795779567959695879577956795E9
:1009700068017901F694E794D794C7946C0D7D1DB6
:100980008E1D9F1D68017901F3E0F694E794D794DA
:10099000C794FA95D1F76C0D7D1D8E1D9F1D6801C2
:1009A0007901A4E0F694E794D794C794AA95D1F777
:1009B0006C0D7D1D8E1D9F1DACCD85E076956795D8
:1009C000579547958A95D1F768017901C41AD50AD8
:1009D000E60AF70AC701B6019CCDCF93DF93CDB7E6
:1009E000DEB7ED970FB6F894DEBF0FBECDBF83E143
:1009F0009E012C5E3F4F38A72FA3D901E82F1D92EF
:100A0000EA95E9F7E0E6F0E0DE01119601900D923B
:100A10008A95E1F7F8941ABC82E083BF12BE89B7C9
:100A2000826089BF10927C0010927D0010927E003F
:100A300010927F001092800010928100109282002C
:100A400010928300109278001092790010927A0030
:100A500010927B0078949FDB83E085BF80E48BBF9E
:100A6000A0DB8FE19EE40197F1F700C00000C19880
:100A700093E09CABA1E0ADABBFE7BBABEFE7EFA76B
:100A8000F1E0FAAB19AA18AA1AA619A6C12CD12C02
:100A9000760160E070E0CB01812C912C5401412C57
:100AA000512C32019E01295D3F4F19014FE750E063
:100AB00059AF48AFAFE7B0E0BFABAEAB4AAE5BAE4D
:100AC0006CAE7DAEB29B61C1009174001091750057
:100AD0002091760030917700012B022B032B09F433
:100AE00054C14090740050907500609076007090F2
:100AF00077004AAE5BAE6CAE7DAE10927400109281
:100B000075001092760010927700F8941092780099
:100B10001092790010927A0010927B0078942FA5A1
:100B2000263008F472C1223108F43DC2223208F4A2
:100B30002CC2203308F462C22F3308F42DC22D34A6
:100B400008F447C22B3508F43DC2293608F48FC299
:100B5000273708F44CC2243808F442C2213908F47B
:100B600060C22F3908F46EC22D3A08F464C22B3BE0
:100B700008F476C2293C08F46CC2283D08F490C2FF
:100B8000263E08F486C2233F08F0C9C122E130E0C6
:100B900040E050E08EEE8DAB6AAD7BAD8CAD9DAD8F
:100BA00020D349015A014AAC5BAC6CAC7DACB501B9
:100BB000A4018BA978DCFE017496DE0111962081D8
:100BC0002F5F20833D91231708F010823196E215A4
:100BD000F305A9F74AAE5BAE6CAE7DAE21E02AAB61
:100BE000B09B0CC148A841100BC1C1981C8A1D8A3A
:100BF0001E8A1F8A188E198E1A8E1B8E1C8E1D8EB1
:100C00001E8E1F8E18A219A21AA21BA21CA21DA220
:100C10001EA2F894C0907800D0907900E0907A00FD
:100C2000F0907B0022B7FE2CED2CDC2CCC24C22AC9
:100C300078941AAA21E029AB31E038AB4AAC5BAC1E
:100C40006CAC7DAC4C145D046E047F0418F4C12CB4
:100C5000D12C7601F89400917800109179002091C0
:100C60007A0030917B0042B77894322F212F102FD9
:100C70000027042B0C151D052E053F0568F05AA80A
:100C8000552051F01AAA81149104A104B10461F411
:100C9000F1E0F9ABC19843C081149104A104B104FF
:100CA000C9F369A8662059F0F89410927C0010925C
:100CB0007D0010927E0010927F007894C19AF89483
:100CC00000917C0010917D0020917E0030917F008A
:100CD00042B7322F212F102F0027042B78940617AC
:100CE00017072807390708F0C19880169106A20651
:100CF000B30608F088C0081919092A093B09012F11
:100D0000122F232F3327F89400937C0010937D003B
:100D100020937E0030937F007894C19A19AA29A568
:100D20003AA52F5F3F4F3AA729A7253631050CF486
:100D3000C9CE349BC7CE349A15B13CA9333009F4DF
:100D40007DC023E227B9369A6BA8161508F06BC050
:100D50002EA93FA9211B3109442737FD4095542F67
:100D6000243031054105510508F458C0B501A401EE
:100D7000812F99DB1BAB23E02CAB1AA619A6412EC1
:100D8000512C5FAA4EAAB2999FCEF8940091780098
:100D90001091790020917A0030917B0042B77894CD
:100DA000322F212F102F0027042B4AAC5BAC6CACE8
:100DB0007DAC440C551C661C771C4016510662061F
:100DC000730608F00DCF1C8A1D8A1E8A1F8A188E92
:100DD000198E1A8E1B8E1C8E1D8E1E8E1F8E18A2B3
:100DE00019A21AA21BA21CA21DA21EA2C12CD12CA8
:100DF0007601812C912C5401B099F4CE18AA1ECF03
:100E000041E048AB1BCF19AA8ACF8AAC9BACACACF3
:100E1000BDAC41E04DAB24013501C9CE23E02CAB84
:100E20001AA619A64FCE212F30E04EA85FA824198C
:100E30003509442737FD4095542F92CF22E227B938
:100E4000369A4FA4141508F071C028AD39AD211B96
:100E50003109442737FD4095542F22303105410593
:100E6000510508F473C0163008F475C0123108F447
:100E70002EC1123208F451C1103308F43FC11F33A0
:100E800008F436C11D3408F42DC11B3508F46FC1B8
:100E9000193608F472C1173708F463C1143808F41E
:100EA0005AC1113908F451C11F3908F448C11D3A1B
:100EB00008F43FC11B3B08F436C1193C08F486C155
:100EC000183D08F46EC1163E08F465C1133F08F0E2
:100ED00056C022E130E040E050E00EEE6AAD7BAD5E
:100EE0008CAD9DAD7ED149015A01BA01A9018BA9F2
:100EF000DADA003F09F070C1ADA91FA7A03F09F4DD
:100F000097C022E02CAB30EF3DAB1AA619A6C12C3E
:100F1000D12C7601412E512C59AE48AED3CD23E1D0
:100F200030E040E050E0ADEEADAB36CE212F30E00A
:100F300068AC79AC26193709442737FD4095542F02
:100F4000223031054105510508F08DCFB2E0BCAB30
:100F50001AA619A6B7CD8AAC9BACACACBDAC21E04F
:100F60002DABB501A4018BA99EDA1FA732E03CABE3
:100F70001AA619A6412E512C59AE48AEA3CD23E195
:100F800030E040E050E00DEEA9CF23E030E040E05B
:100F900050E08DEF8DAB00CE25E030E040E050E03A
:100FA0009BEF9DABF9CD8AAC9BACACACBDACB69421
:100FB000A79497948794BEEFBDAB4AAC5BAC6CAC86
:100FC0007DACF5CD27E030E040E050E0B9EFBDABBF
:100FD000E3CD26E030E040E050E0AAEFADABDCCD61
:100FE0002AE030E040E050E0F6EFFDABD5CD29E05F
:100FF00030E040E050E0E7EFEDABCECD8AAC9BAC0B
:10100000ACACBDACB694A79497948794B694A794CF
:1010100097948794ECEFEDAB4AAC5BAC6CAC7DACD9
:10102000C6CD2BE030E040E050E085EF8DABB4CD95
:10103000B2E0BCAB9DCF2DE030E040E050E0A3EF4C
:10104000ADABAACD2CE030E040E050E094EF9DAB9A
:10105000A3CD2FE030E040E050E0E1EFEDAB9CCDE0
:101060002EE030E040E050E0B2EFBDAB95CD8AAC71
:101070009BACACACBDAC03E0B694A79497948794BA
:101080000A95D1F7F8EFFDAB4AAC5BAC6CAC7DAC2C
:101090008ECD21E130E040E050E09FEE9DAB7CCD75
:1010A0008AAC9BACACACBDAC14E0B694A79497945E
:1010B00087941A95D1F724E6820E911CA11CB11CCD
:1010C00030EF3DAB4AAC5BAC6CAC7DAC70CD8AAC68
:1010D0009BACACACBDACB694A794979487942EEF20
:1010E0002DAB3FCF26E030E040E050E00AEFF6CEF7
:1010F00025E030E040E050E00BEFF0CE8AAC9BAC56
:10110000ACACBDACB694A79497948794B694A794CE
:10111000979487943CEF3DAB24CF23E030E040E050
:1011200050E00DEFDBCE2EE030E040E050E002EF8B
:10113000D5CE2DE030E040E050E003EFCFCE2CE004
:1011400030E040E050E004EFC9CE2BE030E040E07A
:1011500050E005EFC3CE2AE030E040E050E006EF7B
:10116000BDCE29E030E040E050E007EFB7CE27E009
:1011700030E040E050E009EFB1CE8AAC9BACACACC3
:10118000BDAC03E0B694A794979487940A95D1F7E1
:1011900048EF4DABE6CE21E130E040E050E00FEE0D
:1011A0009DCE8AAC9BACACACBDACB4E0B694A7947D
:1011B00097948794BA95D1F754E6850E911CA11C9B
:1011C000B11CB501A4018BA96ED996CE2FE030E0F9
:1011D00040E050E001EF82CE0DAB1FA7E2E0ECABA8
:1011E000C7CEA1E21A2EAA1BBB1BFD010DC0AA1F70
:1011F000BB1FEE1FFF1FA217B307E407F50720F080
:10120000A21BB30BE40BF50B661F771F881F991FFA
:101210001A9469F760957095809590959B01AC0143
:10122000BD01CF01089568940013E894A0E0B0E0F8
:10123000EBE1F9E01DC0EFEFE7F959016A015E2328
:10124000550FEE08FE2C87019B01AC019E23990FE0
:10125000660B762FCB013BD0CDB7DEB7EAE024C0DA
:101260002F923F924F925F926F927F928F929F92B6
:10127000AF92BF92CF92DF92EF92FF920F931F93A4
:10128000CF93DF93CDB7DEB7CA1BDB0B0FB6F89455
:10129000DEBF0FBECDBF09942A88398848885F8495
:1012A0006E847D848C849B84AA84B984C884DF8006
:1012B000EE80FD800C811B81AA81B981CE0FD11DEA
:1012C0000FB6F894DEBF0FBECDBFED010895DF93DA
:1012D000CF939F92A0E49A2E0024D001E001F00168
:1012E00016950795F794E794D794C794B794A79465
:1012F00048F41068A20FB31FC41FD51FE61FF71FC5
:10130000081E191E220F331F441F551F661F771F0B
:10131000881F991F9A9421F79D01AE01BF01C0015A
:0E13200011249F90CF91DF910895F894FFCF94
:10132E00EDEEEFF0F1F2F3F4F5F6F7F8F9FAFBFC67
:04133E00FDFE0100AF
:00000001FF
