:100000000EC0D5C01CC01BC01AC01AC018C017C073
:1000100016C015C014C013C012C011C010C01124E6
:100020001FBECFE5D2E0DEBFCDBF20E0A0E6B0E04E
:1000300001C01D92A137B207E1F750D532C8E0CF19
:100040001F920F920FB60F9211248F939F93AF932D
:10005000BF9380916C0090916D00A0916E00B09163
:100060006F000196A11DB11D80936C0090936D00EF
:10007000A0936E00B0936F00809164009091650032
:10008000A0916600B09167000196A11DB11D8093FB
:10009000640090936500A0936600B0936700809120
:1000A000680090916900A0916A00B0916B00019680
:1000B000A11DB11D8093680090936900A0936A0010
:1000C000B0936B00BF91AF919F918F910F900FBE36
:1000D0000F901F901895F894809168009091690096
:1000E000A0916A00B0916B0022B778946627782FB0
:1000F000892F9A2F622B0895F89480916C0090912B
:100100006D00A0916E00B0916F0022B778946627C1
:10011000782F892F9A2F622B0895F894809164008C
:1001200090916500A0916600B091670022B7789425
:100130006627782F892F9A2F622B0895F8941ABC7E
:1001400082E083BF12BE89B7826089BF10926800C7
:100150001092690010926A0010926B0010926C006D
:1001600010926D0010926E0010926F001092640059
:1001700010926500109266001092670078940895BE
:10018000BA98C298B99AB898C098089587B3837FEF
:1001900087BB88B3837F88BB88E184BB80E886B94E
:1001A00083E287B986B1876086B9369A08951F922F
:1001B0000F920FB60F9211242F938F939F93AF93AB
:1001C000BF93B29B1EC080916C0090916D00A09176
:1001D0006E00B0916F0022B7BA2FA92F982F8827F1
:1001E000822B8093600090936100A0936200B09393
:1001F000630010926C0010926D0010926E001092CD
:100200006F00BF91AF919F918F912F910F900FBE73
:100210000F901F90189583E085BF80E48BBF0895F1
:10022000863010F480E20895823110F480E1089560
:10023000823210F488E00895803310F487E0089546
:100240008F3310F486E008958D3410F485E008951E
:100250008B3510F484E00895893610F483E0089516
:10026000873710F482E0089513C40F931F938A0117
:100270009B01803409F45AC0803209F474C0803183
:1002800009F48AC08C30E9F1883009F49AC08730CB
:1002900009F4A6C0863009F4B6C0853009F4C2C09E
:1002A000843009F4D5C0833009F4DDC0823009F40C
:1002B000E5C0813019F18F3F09F18E3F09F4C1C0CB
:1002C0008D3F09F4E2C08C3F09F4E9C08B3F09F48B
:1002D000F1C08A3F09F4F8C0893F09F4FFC0883FA4
:1002E00009F406C1843F09F417C1803F09F41EC117
:1002F000803E09F429C1803C09F404C1C901B80158
:1003000012C0CB01BA01660F771F881F991F600FBB
:10031000711F821F931F660F771F881F991F660F1B
:10032000771F881F991F1F910F910895CB01BA0164
:10033000660F771F881F991F660F771F881F991FE9
:10034000660F771F881F991F660F771F881F991FD9
:10035000660F771F881F991F660F771F881F991FC9
:100360001F910F910895CB01BA01660F771F881F67
:10037000991F660F771F881F991F660F771F881FA9
:10038000991F660F771F881F991F660F771F881F99
:10039000991F1F910F910895CB01BA01660F771F26
:1003A000881F991F660F771F881F991F660F771F79
:1003B000881F991F660F771F881F991F1F910F9124
:1003C0000895CB01BA01660F771F881F991F660F2A
:1003D000771F881F991F660F771F881F991FA3CF4C
:1003E000CB01BA01660F771F881F991F660F771F11
:1003F000881F991F660F771F881F991F601B710B3D
:10040000820B930B90CFCB01BA01660F771F881F29
:10041000991F600F711F821F931F660F771F881F20
:10042000991F81CFCB01BA01660F771F881F991FD3
:10043000660F771F881F991F600F711F821F931F00
:1004400072CFCB01BA0196958795779567956BCF5B
:10045000CB01BA01660F771F881F991F660F771FA0
:10046000881F991F60CFCB01BA01660F771F881FC5
:10047000991F600F711F821F931F55CFCB01BA01C7
:10048000660F771F881F991F4ECFCB01BA0123E05B
:1004900030E040E050E0E3D5CA01B90144CFCB01E0
:1004A000BA019695879577956795969587957795EF
:1004B000679539CFCB01BA0125E030E040E050E04C
:1004C000CED5CA01B9012FCFCB01BA0126E030E069
:1004D00040E050E0C4D5CA01B90125CFCB01BA0133
:1004E00027E030E040E050E0BAD5CA01B9011BCFA7
:1004F000CB01BA0153E096958795779567955A9504
:10050000D1F711CFCB01BA0126E096958795779563
:1005100067952A95D1F707CFCB01BA012CE030E0DF
:1005200040E050E09CD5CA01B901FDCECB01BA0133
:1005300044E096958795779567954A95D1F76C59DC
:100540007F4F8F4F9F4FEFCECB01BA0135E096958D
:100550008795779567953A95D1F7E5CECF92DF925B
:10056000EF92FF920F931F938A019B01E82FE09572
:10057000E430F8F4013345E714072105310508F4A8
:100580004BC060E177E280E090E000511742210922
:100590003109EA3F28F4061717072807390710F42E
:1005A000C901B8011F910F91FF90EF90DF90CF909C
:1005B0000895EE30B0F4CB01BA0145E096958795E9
:1005C000779567954A95D1F7013345E714072105DB
:1005D000310540F3603147E274078105910588F2E7
:1005E000D4CFE83148F1E23288F5CB01BA01F5E029
:1005F0009695879577956795FA95D1F76801790172
:10060000A4E0F694E794D794C794AA95D1F76C0D1B
:100610007D1D8E1D9F1DD8CFC901B80156E096954E
:100620008795779567955A95D1F71F910F91FF9010
:10063000EF90DF90CF900895CB01BA01B4E096958A
:10064000879577956795BA95D1F7BECFEC32C8F00C
:10065000E63308F5CB01BA01B5E096958795779515
:100660006795BA95D1F76801790143E0F694E7946C
:10067000D794C7944A95D1F76C0D7D1D8E1D9F1D93
:10068000A3CFCB01BA0153E09695879577956795EF
:100690005A95D1F799CFE034B8F4CB01BA01F4E020
:1006A0009695879577956795FA95D1F768017901C1
:1006B000A3E0F694E794D794C794AA95D1F76C0D6C
:1006C0007D1D8E1D9F1D80CFEA3420F5CB01BA0120
:1006D000B4E09695879577956795BA95D1F76801B7
:1006E000790143E0F694E794D794C7944A95D1F7FB
:1006F0006C0D7D1D8E1D9F1D6801790155E0F694DE
:10070000E794D794C7945A95D1F76C0D7D1D8E1D33
:100710009F1D5ACFE53558F4CB01BA0196958795C0
:100720007795679596958795779567954DCFEE3533
:10073000C0F4CB01BA0154E09695879577956795FB
:100740005A95D1F768017901F694E794D794C79444
:10075000F694E794D794C7946C0D7D1D8E1D9F1D54
:1007600033CFE836C0F4CB01BA01B3E09695879554
:1007700077956795BA95D1F768017901F694E79472
:10078000D794C794F694E794D794C7946C0D7D1DC5
:100790008E1D9F1D19CFE23728F5CB01BA0153E01A
:1007A00096958795779567955A95D1F76801790160
:1007B000F694E794D794C794F694E794D794C794A3
:1007C0006C0D7D1D8E1D9F1D68017901A4E0F694BE
:1007D000E794D794C794AA95D1F76C0D7D1D8E1D13
:1007E0009F1DF2CEEC3838F4CB01BA01969587956F
:1007F00077956795E9CEE639A0F4CB01BA01A5E07B
:100800009695879577956795AA95D1F768017901AF
:10081000F694E794D794C7946C0D7D1D8E1D9F1D93
:10082000D3CEE03AA0F4CB01BA0154E09695879577
:10083000779567955A95D1F768017901F694E79411
:10084000D794C7946C0D7D1D8E1D9F1DBDCEEA3AB9
:1008500008F5CB01BA0144E09695879577956795A1
:100860004A95D1F768017901F694E794D794C79433
:100870006C0D7D1D8E1D9F1D6801790155E0F6945C
:10088000E794D794C7945A95D1F76C0D7D1D8E1DB2
:100890009F1D9ACEE43BA0F4CB01BA01A3E096954C
:1008A000879577956795AA95D1F768017901F694B0
:1008B000E794D794C7946C0D7D1D8E1D9F1D84CE2B
:1008C000EE3B50F4CB01BA01F3E09695879577950E
:1008D0006795FA95D1F7C6CFE83C08F5CB01BA0188
:1008E000B3E09695879577956795BA95D1F76801A6
:1008F0007901F694E794D794C7946C0D7D1D8E1DF5
:100900009F1D6801790154E0F694E794D794C79449
:100910005A95D1F76C0D7D1D8E1D9F1D55CEE23D64
:1009200070F5CB01BA0143E0969587957795679569
:100930004A95D1F768017901F694E794D794C79462
:100940006C0D7D1D8E1D9F1D68017901F4E0F694EC
:10095000E794D794C794FA95D1F76C0D7D1D8E1D41
:100960009F1D68017901A5E0F694E794D794C79498
:10097000AA95D1F76C0D7D1D8E1D9F1D25CEEC3DDA
:10098000A8F4CB01BA0196958795779567959695CA
:1009900087957795679568017901F694E794D794E0
:1009A000C7946C0D7D1D8E1D9F1D0ECEE63E58F426
:1009B000CB01BA019695879577956795969587951A
:1009C0007795679594CFE03F10F5CB01BA019695E6
:1009D000879577956795969587957795679568013B
:1009E0007901F694E794D794C7946C0D7D1D8E1D04
:1009F0009F1D68017901B3E0F694E794D794C794FA
:100A0000BA95D1F76C0D7D1D8E1D9F1DDDCDEA3F82
:100A100078F5CB01BA019695879577956795969568
:100A200087957795679568017901F694E794D7944F
:100A3000C7946C0D7D1D8E1D9F1D6801790143E0DB
:100A4000F694E794D794C7944A95D1F76C0D7D1D21
:100A50008E1D9F1D6801790154E0F694E794D794A8
:100A6000C7945A95D1F76C0D7D1D8E1D9F1DACCD81
:100A7000F5E07695679557954795FA95D1F7680112
:100A80007901C41AD50AE60AF70AC701B6019CCD56
:100A9000843890F0813990F08F3990F08D3A90F051
:100AA0008B3B90F0893C90F0883D90F0863E90F032
:100AB000833F90F484EF089581E008958EEF0895C8
:100AC0008DEF08958CEF08958BEF08958AEF0895C8
:100AD00089EF089588EF089580EF0895CF93DF930D
:100AE000CDB7DEB763970FB6F894DEBF0FBECDBFAC
:100AF000F8941ABC82E083BF12BE89B7826089BFB6
:100B0000109268001092690010926A0010926B00B7
:100B100010926C0010926D0010926E0010926F0097
:100B200010926400109265001092660010926700A7
:100B3000789426DB83E085BF80E48BBF27DB8FE1E1
:100B40009EE40197F1F700C00000C1981A82198253
:100B50001B821D821E821F821C821B8A198623E033
:100B60002C8731E0398B2FE72A873FE73B8721E04D
:100B70002887212C312C00E010E0C12CD12C7601EB
:100B800060E070E0CB01812C912C5401412C512C60
:100B900032012FE730E0388B2F873E872D87B29BBD
:100BA00091C02091600030916100409162005091AD
:100BB0006300232B242B252B09F484C04090600074
:100BC000509061006090620070906300109260002D
:100BD000109261001092620010926300F8941092DB
:100BE000640010926500109266001092670078947D
:100BF0003B85363008F068C120E2B301A201822FA4
:100C00002A8B33DB4B015C01AB01BC018A85A6DC7E
:100C10002A89298B2985213009F043C1398932304D
:100C200009F4BAC01986339442E0431528F429899F
:100C3000233009F4ABC0312C2C812F5F2C8324305E
:100C400028F03989343009F4A4C01C823F813F5F09
:100C50003F83353028F02989253009F494C01F825C
:100C60002E812F5F2E83263028F03989363009F403
:100C700081C01E823D813F5F3D83373028F0298946
:100C8000273009F47AC01D822B812F5F2B832830F7
:100C900028F03989383009F46AC01B8239813F5FF6
:100CA0003983303128F02989203109F469C019824B
:100CB0002A812F5F2A83203228F03989303209F4C3
:100CC00053C01A82B09BDCC03B893111E5C0C1988A
:100CD000F894C0906400D0906500E0906600F090B9
:100CE000670022B7FE2CED2CDC2CCC24C22A789491
:100CF0001A8219821B821D821E821F821C82312C45
:100D0000198618862224239421E02B8B29892230EE
:100D10000CF4BBC08C149D04AE04BF0418F4C12CA9
:100D2000D12C7601F89420916400309165004091B7
:100D3000660050916700E2B77894542F432F322F0A
:100D400022272E2B2C153D054E055F0538F13885E1
:100D5000332321F1188681149104A104B10429F5EB
:100D600022242394C1985CC021E02887AACF21E0E7
:100D7000288793CF21E028877CCF31E0388783CF45
:100D800031E0388794CF31E0388769CF31E0388758
:100D900052CF21E0288759CF288744CF811491046E
:100DA000A104B104F9F2222059F0F89410926800DD
:100DB0001092690010926A0010926B007894C19AA8
:100DC000F894209168003091690040916A00509138
:100DD0006B00E2B7542F432F322F22272E2B78940B
:100DE000261737074807590708F0C1988216930657
:100DF000A406B50608F053C0281939094A095B0949
:100E0000232F342F452F5527F894209368003093D3
:100E1000690040936A0050936B007894C19A212C2A
:100E20000F5F1F4F053611050CF4B9CE349BB7CEBA
:100E3000349A05B12C85233009F44BC043E247B9FD
:100E4000369A2A850217A8F52D853E85201B310983
:100E5000442737FD4095542F243031054105510575
:100E600018F1B501A401802F79DB0A8723E02C87D4
:100E700000E010E03A85232F30E03E872D878FCEAB
:100E80001B8A298922300CF045CF4C145D046E0476
:100E90007F0408F444CF46CF31E03B8B37CF212C81
:100EA000BFCF31E03987BFCE23E02C8700E010E0D0
:100EB00076CE202F30E04D855E85241B350B4427F0
:100EC00037FD4095542FC8CF323108F042C020E1A1
:100ED00094CE32E237B9369A2B85021730F52F853A
:100EE0003889201B3109442737FD4095542F223083
:100EF00031054105510540F1063078F520E2298B96
:100F0000822FB301A201B1D94B015C01AB01BC013D
:100F10008A8524DB0B8732E03C8700E010E03B85CC
:100F2000232F30E0388B2F873ACE202F30E04F85AB
:100F30005889241B350B442737FD4095542F223008
:100F4000310541055105C0F632E03C8700E010E074
:100F500026CE323240F428E050CE023140F430E167
:100F6000398B832FCECF303340F427E046CE023288
:100F700040F428E0298B822FC4CF3F3340F426E091
:100F80003CCE003340F437E0398B832FBACF3D3469
:100F900040F425E032CE0F3340F426E0298B822F37
:100FA000B0CF3B3540F424E028CE0D3440F435E09A
:100FB000398B832FA6CF393640F423E01ECE0B3574
:100FC00040F424E0298B822F9CCF373740F422E075
:100FD00014CE0936B8F433E0398B832F92CF832FA8
:100FE00057DD898BB301A20140D94B015C01AB01F4
:100FF000BC018A85B3DA298922300CF00BCE31E0AE
:10100000388708CE073720F422E0298B822F79CF4A
:10101000802F3EDD182FB301A20127D94B015C01BF
:10102000AB01BC018A859ADA103FA1F42989203FDF
:1010300009F470CF20EF298B0B8732E03C8700E06A
:1010400010E0C12CD12C76013B85232F30E0388B6A
:101050002F87A5CD198B0B8722E02C875ECFA1E2CD
:101060001A2EAA1BBB1BFD010DC0AA1FBB1FEE1F22
:10107000FF1FA217B307E407F50720F0A21BB30B6D
:10108000E40BF50B661F771F881F991F1A9469F7E9
:1010900060957095809590959B01AC01BD01CF0145
:0610A0000895F894FFCF53
:00000001FF
