:100000000EC0D5C01CC01BC01AC01AC018C017C073
:1000100016C015C014C013C012C011C010C01124E6
:100020001FBECFE5D2E0DEBFCDBF20E0A0E6B0E04E
:1000300001C01D92A137B207E1F7C4D430C9E0CFA7
:100040001F920F920FB60F9211248F939F93AF932D
:10005000BF9380916C0090916D00A0916E00B09163
:100060006F000196A11DB11D80936C0090936D00EF
:10007000A0936E00B0936F00809164009091650032
:10008000A0916600B09167000196A11DB11D8093FB
:10009000640090936500A0936600B0936700809120
:1000A000680090916900A0916A00B0916B00019680
:1000B000A11DB11D8093680090936900A0936A0010
:1000C000B0936B00BF91AF919F918F910F900FBE36
:1000D0000F901F901895F894809168009091690096
:1000E000A0916A00B0916B0022B778946627782FB0
:1000F000892F9A2F622B0895F89480916C0090912B
:100100006D00A0916E00B0916F0022B778946627C1
:10011000782F892F9A2F622B0895F894809164008C
:1001200090916500A0916600B091670022B7789425
:100130006627782F892F9A2F622B0895F8941ABC7E
:1001400082E083BF12BE89B7826089BF10926800C7
:100150001092690010926A0010926B0010926C006D
:1001600010926D0010926E0010926F001092640059
:1001700010926500109266001092670078940895BE
:10018000BA98C298B99AB898C098089587B3837FEF
:1001900087BB88B3837F88BB88E184BB80E886B94E
:1001A00083E287B986B1876086B9369A08951F922F
:1001B0000F920FB60F9211242F938F939F93AF93AB
:1001C000BF93B29B1EC080916C0090916D00A09176
:1001D0006E00B0916F0022B7BA2FA92F982F8827F1
:1001E000822B8093600090936100A0936200B09393
:1001F000630010926C0010926D0010926E001092CD
:100200006F00BF91AF919F918F912F910F900FBE73
:100210000F901F90189583E085BF80E48BBF0895F1
:10022000863020F1823140F1823240F1803340F15A
:100230008F3340F18D34F0F08B3530F1893630F169
:10024000873730F1843830F1813930F18F3930F12E
:100250008D3A30F18B3B30F1893C30F1883D30F103
:10026000863E30F1833F20F48EEE089581E00895BC
:100270008DEE08958AEF08958EEF08958DEF08951D
:100280008CEF08958BEF089589EF089588EF089516
:1002900087EF089586EF089585EF089584EF089518
:1002A00083EF089582EF089581EF089580EF089518
:1002B0008FEE0895CF92DF92EF92FF929A01AB01F9
:1002C000803409F443C0803209F45FC0803109F4FE
:1002D00077C0883041F1843009F489C0823009F454
:1002E00091C091E0980F933008F493C08E3F09F4C9
:1002F000A1C08C3F09F4A5C0883F09F4ADC0803F80
:1003000009F48AC087FDB2C0682F772767FD709512
:10031000872F972F44D7A32FF42FE52F622F7A2F03
:100320008F2F9E2F0EC0CA01B901660F771F881F3D
:10033000991F660F771F881F991F660F771F881FE9
:10034000991FFF90EF90DF90CF900895CA01B901F7
:10035000660F771F881F991F660F771F881F991FC9
:10036000660F771F881F991F660F771F881F991FB9
:10037000660F771F881F991F660F771F881F991FA9
:10038000FF90EF90DF90CF900895CA01B901660FFA
:10039000771F881F991F660F771F881F991F660F89
:1003A000771F881F991F660F771F881F991F660F79
:1003B000771F881F991FFF90EF90DF90CF900895CF
:1003C000CA01B901660F771F881F991F660F771F33
:1003D000881F991F660F771F881F991F660F771F49
:1003E000881F991FFF90EF90DF90CF900895CA016A
:1003F000B901660F771F881F991F660F771F881F27
:10040000991F9FCFCA01B901660F771F881F991FD7
:1004100098CFCA01B90195CFCA01B90124E09695D8
:100420008795779567952A95D1F76C597F4F8F4FB0
:100430009F4F87CFCA01B9019695879577956795A4
:1004400080CFCA01B901969587957795679596955E
:1004500087957795679575CFCA01B90133E0969571
:100460008795779567953A95D1F76BCF682F772762
:1004700061950CF470956B01EE24D7FCE094FE2C92
:10048000CA01B901A701960166D6CA01B90159CFBF
:10049000CF92DF92EF92FF920F931F938A019B01FD
:1004A000E82FE095E430F8F4013345E7140721051F
:1004B000310508F44BC060E177E280E090E0005144
:1004C000174221093109EA3F28F4061717072807C0
:1004D000390710F4C901B8011F910F91FF90EF90F7
:1004E000DF90CF900895EE30B0F4CB01BA01F5E083
:1004F0009695879577956795FA95D1F7013345E7F6
:1005000014072105310540F3603147E27407810586
:10051000910588F2D4CFE83148F1E23288F5CB0179
:10052000BA01B5E09695879577956795BA95D1F715
:100530006801790144E0F694E794D794C7944A950A
:10054000D1F76C0D7D1D8E1D9F1DD8CFC901B8013F
:10055000A6E09695879577956795AA95D1F71F910F
:100560000F91FF90EF90DF90CF900895CB01BA01EB
:1005700054E096958795779567955A95D1F7BECFB4
:10058000EC32C8F0E63308F5CB01BA0155E0969598
:100590008795779567955A95D1F768017901F3E0CA
:1005A000F694E794D794C794FA95D1F76C0D7D1D16
:1005B0008E1D9F1DA3CFCB01BA01A3E09695879511
:1005C00077956795AA95D1F799CFE034B8F4CB0128
:1005D000BA01B4E09695879577956795BA95D1F766
:1005E0006801790143E0F694E794D794C7944A955B
:1005F000D1F76C0D7D1D8E1D9F1D80CFEA3420F537
:10060000CB01BA0154E096958795779567955A95F1
:10061000D1F768017901F3E0F694E794D794C79491
:10062000FA95D1F76C0D7D1D8E1D9F1D6801790116
:10063000A5E0F694E794D794C794AA95D1F76C0DEA
:100640007D1D8E1D9F1D5ACFE53558F4CB01BA0193
:1006500096958795779567959695879577956795FC
:100660004DCFEE35C0F4CB01BA01A4E09695879545
:1006700077956795AA95D1F768017901F694E79483
:10068000D794C794F694E794D794C7946C0D7D1DC6
:100690008E1D9F1D33CFE836C0F4CB01BA0153E065
:1006A00096958795779567955A95D1F76801790161
:1006B000F694E794D794C794F694E794D794C794A4
:1006C0006C0D7D1D8E1D9F1D19CFE23728F5CB01C6
:1006D000BA01A3E09695879577956795AA95D1F786
:1006E00068017901F694E794D794C794F694E79457
:1006F000D794C7946C0D7D1D8E1D9F1D68017901D7
:1007000044E0F694E794D794C7944A95D1F76C0DDA
:100710007D1D8E1D9F1DF2CEEC3838F4CB01BA0141
:100720009695879577956795E9CEE639A0F4CB0144
:10073000BA0145E096958795779567954A95D1F7E3
:1007400068017901F694E794D794C7946C0D7D1DE8
:100750008E1D9F1DD3CEE03AA0F4CB01BA01A4E0D8
:100760009695879577956795AA95D1F76801790150
:10077000F694E794D794C7946C0D7D1D8E1D9F1D34
:10078000BDCEEA3A08F5CB01BA01F4E0969587951B
:1007900077956795FA95D1F768017901F694E79412
:1007A000D794C7946C0D7D1D8E1D9F1D6801790126
:1007B000A5E0F694E794D794C794AA95D1F76C0D69
:1007C0007D1D8E1D9F1D9ACEE43BA0F4CB01BA0186
:1007D00043E096958795779567954A95D1F7680197
:1007E0007901F694E794D794C7946C0D7D1D8E1D06
:1007F0009F1D84CEEE3B50F4CB01BA01B3E0969539
:10080000879577956795BA95D1F7C6CFE83C08F5F7
:10081000CB01BA0153E096958795779567955A95E0
:10082000D1F768017901F694E794D794C7946C0DD9
:100830007D1D8E1D9F1D68017901A4E0F694E7944B
:10084000D794C794AA95D1F76C0D7D1D8E1D9F1D61
:1008500055CEE23D70F5CB01BA01F3E09695879550
:1008600077956795FA95D1F768017901F694E79441
:10087000D794C7946C0D7D1D8E1D9F1D6801790155
:10088000B4E0F694E794D794C794BA95D1F76C0D79
:100890007D1D8E1D9F1D6801790145E0F694E7944A
:1008A000D794C7944A95D1F76C0D7D1D8E1D9F1D61
:1008B00025CEEC3DA8F4CB01BA01969587957795A6
:1008C0006795969587957795679568017901F69470
:1008D000E794D794C7946C0D7D1D8E1D9F1D0ECE81
:1008E000E63E58F4CB01BA019695879577956795C2
:1008F000969587957795679594CFE03F10F5CB0156
:10090000BA0196958795779567959695879577958A
:10091000679568017901F694E794D794C7946C0DB4
:100920007D1D8E1D9F1D6801790153E0F694E794AB
:10093000D794C7945A95D1F76C0D7D1D8E1D9F1DC0
:10094000DDCDEA3F78F5CB01BA019695879577958D
:100950006795969587957795679568017901F694DF
:10096000E794D794C7946C0D7D1D8E1D9F1D680163
:100970007901F3E0F694E794D794C794FA95D1F708
:100980006C0D7D1D8E1D9F1D68017901A4E0F694FC
:10099000E794D794C794AA95D1F76C0D7D1D8E1D51
:1009A0009F1DACCD85E076956795579547958A95BF
:1009B000D1F768017901C41AD50AE60AF70AC70116
:1009C000B6019CCDCF93DF93CDB7DEB762970FB65C
:1009D000F894DEBF0FBECDBFF8941ABC82E083BF8F
:1009E00012BE89B7826089BF1092680010926900B8
:1009F00010926A0010926B0010926C0010926D00C1
:100A000010926E0010926F001092640010926500B8
:100A100010926600109267007894B2DB83E085BF85
:100A200080E48BBFB3DB8FE19EE40197F1F700C058
:100A30000000C19800E093E09887A1E0A987BFE794
:100A4000BF832FE72A8B31E03E831D8210E0212CEB
:100A5000312CC12CD12C760160E070E0CB01812CCF
:100A6000912C5401412C512C32014FE750E05D870D
:100A70004C87AFE7B0E0BB87AA874E865F86688A5F
:100A8000798AB29B39C12091600030916100409118
:100A9000620050916300232B242B252B09F42CC1D9
:100AA0004090600050906100609062007090630020
:100AB0004E865F86688A798A109260001092610083
:100AC0001092620010926300F894109264001092E9
:100AD0006500109266001092670078942A8926308B
:100AE00008F43AC1223108F41CC2223208F40BC2C5
:100AF000203308F444C22F3308F40CC22D3408F418
:100B00001BC22B3508F41FC2293608F466C22737EA
:100B100008F427C2243808F41DC2213908F428C279
:100B20002F3908F445C22D3A08F43BC22B3B08F498
:100B300046C2293C08F44AC2283D08F463C2263E56
:100B400008F459C2233F08F0A7C122E130E040E099
:100B500050E08EEE89876E857F8588899989FBD2E2
:100B600049015A01B501A4018F8192DC0F5F003267
:100B700008F4EFC000E051E05E83B09BE4C01111C7
:100B8000E4C0C198F894C0906400D0906500E090F3
:100B90006600F090670022B7FE2CED2CDC2CCC24F4
:100BA000C22A789400E01E8231E03D8311E04E8439
:100BB0005F84688879884C145D046E047F0418F49F
:100BC000C12CD12C7601F8942091640030916500FD
:100BD0004091660050916700E2B77894542F432FFC
:100BE000322F22272E2B2C153D054E055F0568F070
:100BF0005E80552051F01E8281149104A104B1043D
:100C000061F4F1E0FD83C19843C081149104A10413
:100C1000B104C9F36D80662059F0F8941092680011
:100C20001092690010926A0010926B007894C19A39
:100C3000F894209168003091690040916A005091C9
:100C40006B00E2B7542F432F322F22272E2B78949C
:100C5000261737074807590708F0C19882169306E8
:100C6000A406B50608F073C0281939094A095B09BA
:100C7000232F342F452F5527F89420936800309365
:100C8000690040936A0050936B007894C19A1D826A
:100C90002FEF221A320A35E6231631040CF4F1CE76
:100CA000349BEFCE349A65B04885433009F46BC06D
:100CB00023E227B9369A7F80671408F059C02A8545
:100CC0003B8526193109442737FD4095542F2430A0
:100CD00031054105510508F446C0B501A401862D32
:100CE000D7DB6F8223E02887212C312C462C512C16
:100CF0005B864A86B299C7CEF89420916400309101
:100D000065004091660050916700E2B77894542FD7
:100D1000432F322F22272E2B4E845F8468887988B8
:100D2000440C551C661C771C421653066406750657
:100D300008F023CF00E0C12CD12C7601812C912C1E
:100D40005401B0991CCF10E032CF11E030CF1D829A
:100D50009FCF21E02E8311CF8E849F84A888B988ED
:100D600041E04987FFCE23E02887212C312C89CE12
:100D7000262D30E04A845B8424193509442737FD49
:100D80004095542FA4CF22E227B9369A4A8864149A
:100D900008F089C02C853D8526193109442737FD87
:100DA0004095542F223031054105510508F48BC080
:100DB00095E0592E561408F08BC081E1782E7614F8
:100DC00008F048C121E2261508F02FC13FE2361590
:100DD00008F075C14EE3461508F035C15CE45615C0
:100DE00008F02AC18AE5861508F04DC198E69615E7
:100DF00008F057C1A6E7A61508F03EC1B3E8B6153E
:100E000008F033C1E0E9E61508F084C1FEE9F61503
:100E100008F079C1BCEA4B2E461408F06DC1AAEB6C
:100E20005A2E561408F061C1F8EC7F2E761408F0A3
:100E300055C127ED261508F074C135EE361508F0BA
:100E400029C142EF461508F457C022E130E040E0E6
:100E500050E0EEEE7E2E6E857F85888999897BD164
:100E600049015A01BA01A9018F8112DBB0EF7B124F
:100E70006DC1E9856A8AE03F09F490C022E02887C5
:100E800030EF3987212C312CC12CD12C7601462C06
:100E9000512C5D864C86F5CD23E130E040E050E0FA
:100EA000ADEEA98758CE262D30E04C845D84241900
:100EB0003509442737FD4095542F2230310541052F
:100EC000510508F075CFB2E0B887212C312CD9CD6F
:100ED0008E849F84A888B98821E02987B501A40160
:100EE0008F81D6DA6A8A32E03887212C312C462C61
:100EF000512C5D864C86C5CD23E130E040E050E0CA
:100F00006DEE762EA8CF23E030E040E050E08DEF8C
:100F1000898721CE25E030E040E050E09BEF9987C3
:100F20001ACE8E849F84A888B988B694A794979483
:100F30008794BEEFB98716CE26E030E040E050E05F
:100F4000AAEFA98708CE27E030E040E050E0B9EFF3
:100F5000B98701CE2AE030E040E050E0F6EFF987B3
:100F6000FACD29E030E040E050E0E7EFE987F3CD4B
:100F70002BE030E040E050E085EF8987ECCD8E84B7
:100F80009F84A888B988B694A79497948794B694B8
:100F9000A79497948794ECEFE987E4CDF2E0F88783
:100FA000A4CF2DE030E040E050E0A3EFA987D3CDFF
:100FB0002CE030E040E050E094EF9987CCCD2EE07B
:100FC00030E040E050E0B2EFB987C5CD2FE030E02F
:100FD00040E050E0E1EFE987BECD8E849F84A88891
:100FE000B98883E0B694A794979487948A95D1F7AB
:100FF000F8EFF987B7CD21E130E040E050E09FEE17
:101000009987A9CD8E849F84A888B988B4E0B694C6
:10101000A79497948794BA95D1F724E6820E911CF1
:10102000A11CB11C30EF39879DCD23E030E040E0BA
:1010300050E09DEF792E0FCF26E030E040E050E009
:10104000BAEF7B2E08CF25E030E040E050E08BEF98
:10105000782E01CF8E849F84A888B988B694A794EF
:10106000979487945EEF598739CF2AE030E040E0CB
:1010700050E0E6EF7E2EEFCE29E030E040E050E099
:10108000F7EF7F2EE8CE27E030E040E050E0A9EF18
:101090007A2EE1CE21E130E040E050E07FEE772E85
:1010A000DACE8E849F84A888B98833E0B694A7945A
:1010B000979487943A95D1F798EF99870FCF8E84BC
:1010C0009F84A888B988B694A79497948794B69477
:1010D000A794979487948CEF898700CF2FE030E016
:1010E00040E050E0B1EF7B2EB6CE2EE030E040E0A5
:1010F00050E082EF782EAFCE2DE030E040E050E0BF
:1011000093EF792EA8CE2CE030E040E050E064EF81
:10111000762EA1CE2BE030E040E050E075EF772E48
:101120009ACE8E849F84A888B98824E0B694A79428
:10113000979487942A95D1F7A4E68A0E911CA11C56
:10114000B11CB501A4018F81A3D993CE79866A8A97
:10115000E2E0E887CACEA1E21A2EAA1BBB1BFD0162
:101160000DC0AA1FBB1FEE1FFF1FA217B307E40786
:10117000F50720F0A21BB30BE40BF50B661F771FDE
:10118000881F991F1A9469F76095709580959095BE
:101190009B01AC01BD01CF01089568940013E89450
:1011A000A0E0B0E0E5EDF8E01DC0EFEFE7F9590190
:1011B0006A015E23550FEE08FE2C87019B01AC01EE
:1011C0009E23990F660B762FCB013BD0CDB7DEB7B0
:1011D000EAE024C02F923F924F925F926F927F92EB
:1011E0008F929F92AF92BF92CF92DF92EF92FF9237
:1011F0000F931F93CF93DF93CDB7DEB7CA1BDB0BE3
:101200000FB6F894DEBF0FBECDBF09942A88398887
:1012100048885F846E847D848C849B84AA84B9848E
:10122000C884DF80EE80FD800C811B81AA81B9819A
:10123000CE0FD11D0FB6F894DEBF0FBECDBFED01AE
:101240000895DF93CF939F92A0E49A2E0024D001BB
:10125000E001F00116950795F794E794D794C794A9
:10126000B794A79448F41068A20FB31FC41FD51FEA
:10127000E61FF71F081E191E220F331F441F551F9C
:10128000661F771F881F991F9A9421F79D01AE0151
:10129000BF01C00111249F90CF91DF910895F89470
:0212A000FFCF7E
:00000001FF
