:100000000EC0D5C01CC01BC01AC01AC018C017C073
:1000100016C015C014C013C012C011C010C01124E6
:100020001FBECFE5D2E0DEBFCDBF20E0A0E6B0E04E
:1000300001C01D92A137B207E1F7C5D458CAE0CF7D
:100040001F920F920FB60F9211248F939F93AF932D
:10005000BF9380916C0090916D00A0916E00B09163
:100060006F000196A11DB11D80936C0090936D00EF
:10007000A0936E00B0936F00809164009091650032
:10008000A0916600B09167000196A11DB11D8093FB
:10009000640090936500A0936600B0936700809120
:1000A000680090916900A0916A00B0916B00019680
:1000B000A11DB11D8093680090936900A0936A0010
:1000C000B0936B00BF91AF919F918F910F900FBE36
:1000D0000F901F901895F894809168009091690096
:1000E000A0916A00B0916B0022B778946627782FB0
:1000F000892F9A2F622B0895F89480916C0090912B
:100100006D00A0916E00B0916F0022B778946627C1
:10011000782F892F9A2F622B0895F894809164008C
:1001200090916500A0916600B091670022B7789425
:100130006627782F892F9A2F622B0895F8941ABC7E
:1001400082E083BF12BE89B7826089BF10926800C7
:100150001092690010926A0010926B0010926C006D
:1001600010926D0010926E0010926F001092640059
:1001700010926500109266001092670078940895BE
:10018000BA98C298B99AB898C098089587B3837FEF
:1001900087BB88B3837F88BB88E184BB80E886B94E
:1001A00083E287B986B1876086B9369A08951F922F
:1001B0000F920FB60F9211242F938F939F93AF93AB
:1001C000BF93B29B1EC080916C0090916D00A09176
:1001D0006E00B0916F0022B7BA2FA92F982F8827F1
:1001E000822B8093600090936100A0936200B09393
:1001F000630010926C0010926D0010926E001092CD
:100200006F00BF91AF919F918F912F910F900FBE73
:100210000F901F90189583E085BF80E48BBF0895F1
:10022000863010F480E20895823110F480E1089560
:10023000823210F488E00895803310F487E0089546
:100240008F3310F486E008958D3410F485E008951E
:100250008B3510F484E00895893610F483E0089516
:10026000873710F482E0089588C3CF92DF92EF922F
:10027000FF929A01AB01803409F443C0803209F443
:100280005FC0803109F477C0883041F1843009F4CF
:1002900089C0823009F491C091E0980F933008F43E
:1002A00093C08E3F09F4A1C08C3F09F4A5C0883FDC
:1002B00009F4ADC0803F09F48AC087FDB2C0682F41
:1002C000772767FD7095872F972F91D8A32FF42F4D
:1002D000E52F622F7A2F8F2F9E2F0EC0CA01B901F2
:1002E000660F771F881F991F660F771F881F991F3A
:1002F000660F771F881F991FFF90EF90DF90CF90B8
:100300000895CA01B901660F771F881F991F660FEC
:10031000771F881F991F660F771F881F991F660F09
:10032000771F881F991F660F771F881F991F660FF9
:10033000771F881F991FFF90EF90DF90CF9008954F
:10034000CA01B901660F771F881F991F660F771FB3
:10035000881F991F660F771F881F991F660F771FC9
:10036000881F991F660F771F881F991FFF90EF90B6
:10037000DF90CF900895CA01B901660F771F881FDB
:10038000991F660F771F881F991F660F771F881F99
:10039000991F660F771F881F991FFF90EF90DF90BE
:1003A000CF900895CA01B901660F771F881F991F62
:1003B000660F771F881F991F9FCFCA01B901660F6B
:1003C000771F881F991F98CFCA01B90195CFCA011D
:1003D000B90124E096958795779567952A95D1F789
:1003E0006C597F4F8F4F9F4F87CFCA01B9019695A8
:1003F00087957795679580CFCA01B90196958795BE
:1004000077956795969587957795679575CFCA0186
:10041000B90133E096958795779567953A95D1F729
:100420006BCF682F772761950CF470956B01EE24E4
:10043000D7FCE094FE2CCA01B901A7019601B3D7FD
:10044000CA01B90159CFCF92DF92EF92FF920F9379
:100450001F938A019B01E82FE095E430F8F4013303
:1004600045E714072105310508F44BC060E177E248
:1004700080E090E00051174221093109EA3F28F459
:10048000061717072807390710F4C901B8011F918B
:100490000F91FF90EF90DF90CF900895EE30B0F481
:1004A000CB01BA01F5E09695879577956795FA9512
:1004B000D1F7013345E714072105310540F36031D9
:1004C00047E274078105910588F2D4CFE83148F1FD
:1004D000E23288F5CB01BA01B5E09695879577951C
:1004E0006795BA95D1F76801790144E0F694E794ED
:1004F000D794C7944A95D1F76C0D7D1D8E1D9F1D15
:10050000D8CFC901B801A6E09695879577956795EC
:10051000AA95D1F71F910F91FF90EF90DF90CF90A8
:100520000895CB01BA0154E0969587957795679524
:100530005A95D1F7BECFEC32C8F0E63308F5CB01BF
:10054000BA0155E096958795779567955A95D1F7B5
:1005500068017901F3E0F694E794D794C794FA958B
:10056000D1F76C0D7D1D8E1D9F1DA3CFCB01BA0150
:10057000A3E09695879577956795AA95D1F799CF3A
:10058000E034B8F4CB01BA01B4E09695879577953D
:100590006795BA95D1F76801790143E0F694E7943D
:1005A000D794C7944A95D1F76C0D7D1D8E1D9F1D64
:1005B00080CFEA3420F5CB01BA0154E096958795B7
:1005C000779567955A95D1F768017901F3E0F6942C
:1005D000E794D794C794FA95D1F76C0D7D1D8E1DC5
:1005E0009F1D68017901A5E0F694E794D794C7941C
:1005F000AA95D1F76C0D7D1D8E1D9F1D5ACFE53537
:1006000058F4CB01BA01969587957795679596959D
:100610008795779567954DCFEE35C0F4CB01BA013C
:10062000A4E09695879577956795AA95D1F7680187
:100630007901F694E794D794C794F694E794D79405
:10064000C7946C0D7D1D8E1D9F1D33CFE836C0F401
:10065000CB01BA0153E096958795779567955A95A2
:10066000D1F768017901F694E794D794C794F6948A
:10067000E794D794C7946C0D7D1D8E1D9F1D19CFD7
:10068000E23728F5CB01BA01A3E0969587957795D7
:100690006795AA95D1F768017901F694E794D79404
:1006A000C794F694E794D794C7946C0D7D1D8E1D66
:1006B0009F1D6801790144E0F694E794D794C794AC
:1006C0004A95D1F76C0D7D1D8E1D9F1DF2CEEC3825
:1006D00038F4CB01BA019695879577956795E9CE61
:1006E000E639A0F4CB01BA0145E096958795779558
:1006F00067954A95D1F768017901F694E794D79404
:10070000C7946C0D7D1D8E1D9F1DD3CEE03AA0F4C5
:10071000CB01BA01A4E09695879577956795AA9540
:10072000D1F768017901F694E794D794C7946C0DDA
:100730007D1D8E1D9F1DBDCEEA3A08F5CB01BA0185
:10074000F4E09695879577956795FA95D1F76801C6
:100750007901F694E794D794C7946C0D7D1D8E1D96
:100760009F1D68017901A5E0F694E794D794C7949A
:10077000AA95D1F76C0D7D1D8E1D9F1D9ACEE43B71
:10078000A0F4CB01BA0143E09695879577956795DC
:100790004A95D1F768017901F694E794D794C79404
:1007A0006C0D7D1D8E1D9F1D84CEEE3B50F4CB0144
:1007B000BA01B3E09695879577956795BA95D1F785
:1007C000C6CFE83C08F5CB01BA0153E09695879572
:1007D000779567955A95D1F768017901F694E79472
:1007E000D794C7946C0D7D1D8E1D9F1D68017901E6
:1007F000A4E0F694E794D794C794AA95D1F76C0D2A
:100800007D1D8E1D9F1D55CEE23D70F5CB01BA01B9
:10081000F3E09695879577956795FA95D1F76801F6
:100820007901F694E794D794C7946C0D7D1D8E1DC5
:100830009F1D68017901B4E0F694E794D794C794BA
:10084000BA95D1F76C0D7D1D8E1D9F1D6801790134
:1008500045E0F694E794D794C7944A95D1F76C0D88
:100860007D1D8E1D9F1D25CEEC3DA8F4CB01BA0148
:1008700096958795779567959695879577956795DA
:1008800068017901F694E794D794C7946C0D7D1DA7
:100890008E1D9F1D0ECEE63E58F4CB01BA019695F3
:1008A000879577956795969587957795679594CF72
:1008B000E03F10F5CB01BA0196958795779567953E
:1008C000969587957795679568017901F694E794F1
:1008D000D794C7946C0D7D1D8E1D9F1D68017901F5
:1008E00053E0F694E794D794C7945A95D1F76C0DDA
:1008F0007D1D8E1D9F1DDDCDEA3F78F5CB01BA0130
:100900009695879577956795969587957795679549
:1009100068017901F694E794D794C7946C0D7D1D16
:100920008E1D9F1D68017901F3E0F694E794D7943A
:10093000C794FA95D1F76C0D7D1D8E1D9F1D680122
:100940007901A4E0F694E794D794C794AA95D1F7D7
:100950006C0D7D1D8E1D9F1DACCD85E07695679538
:10096000579547958A95D1F768017901C41AD50A38
:10097000E60AF70AC701B6019CCD843890F08139A8
:1009800090F08F3990F08D3A90F08B3B90F0893C4D
:1009900090F0883D90F0863E90F0833F90F484EF95
:1009A000089581E008958EEF08958DEF08958CEFFE
:1009B00008958BEF08958AEF089589EF089588EFE1
:1009C000089580EF0895CF93DF93CDB7DEB76A9790
:1009D0000FB6F894DEBF0FBECDBFF8941ABC82E00C
:1009E00083BF12BE89B7826089BF109268001092DF
:1009F000690010926A0010926B0010926C001092C5
:100A00006D0010926E0010926F00109264001092B0
:100A1000650010926600109267007894B1DB83E065
:100A200085BF80E48BBFB2DB8FE19EE40197F1F7D5
:100A300000C00000C1981F82188619861A861B867E
:100A400000E01D821E821E8693E0998B21E03FE725
:100A50003F874FE7488B51E05D871C8610E0212CD3
:100A6000312C412C512C320160E070E0CB01C12CC3
:100A7000D12C7601812C912C5401AFE7B0E0BD8BD5
:100A8000AC8BEFE7F0E0FB8BEA8B8E8A9F8AA88E17
:100A9000B98E2A8FB29BA7C120916000309161006E
:100AA0004091620050916300232B242B252B09F4E5
:100AB0009AC18090600090906100A0906200B09018
:100AC00063008E8A9F8AA88EB98E10926000109261
:100AD00061001092620010926300F894109264001A
:100AE0001092650010926600109267007894288931
:100AF000263008F0CEC180E28A8F482F803209F478
:100B0000D1C1803109F440C2483009F457C24430A1
:100B100009F465C2423009F48AC2842F8F5F8330A2
:100B200008F493C2BA8DBE3F09F4B1C2BC3F09F4C8
:100B3000B7C2B83F09F4C1C2B03F09F4CFC2B7FD94
:100B4000E4C26B2F772767FD7095872F972F2E892B
:100B50003F89488D598D4BD4C22ED32EE42EF52ECD
:100B6000B701A6018F856FDC2A8D223014F431E0A5
:100B70003D874E85413009F079C15A8D523009F4D4
:100B8000A5C01E86EE81EF5FEE83E33028F0FA8D7C
:100B9000F33009F4AAC01E823D813F5F3D833430AB
:100BA00028F04A8D443009F4A3C01D820F5F053040
:100BB00028F0AA8DA53009F495C000E0EB85EF5F21
:100BC000EB87E63028F0FA8DF63009F488C01B86F2
:100BD0003A853F5F3A87373028F04A8D473009F42D
:100BE0007BC01A86A985AF5FA987A83028F0BA8D87
:100BF000B83009F46EC01986F885FF5FF887F031C8
:100C000028F02A8D203109F45EC018864F814F5F8D
:100C10004F83403228F05A8D503209F451C01F8260
:100C2000B09B10C111111EC1C198F894409064008E
:100C300050906500609066007090670022B7762C37
:100C4000652C542C4424422A78941F8218861986D5
:100C50001A861B8600E01D821E821E861D8621E0EC
:100C60002C8711E03A8D32300CF4F1C0C414D50455
:100C7000E604F70418F4412C512C3201F894209129
:100C80006400309165004091660050916700E2B7C2
:100C90007894542F432F322F22272E2B24153505DD
:100CA0004605570540F19D84992029F11D86C11400
:100CB000D104E104F10439F531E03C87C1985EC00C
:100CC000A1E0AD87ACCF31E03D879FCFA1E0AD87FC
:100CD00058CFE1E0ED878FCF51E05D8782CF21E0F3
:100CE0002D8775CFB1E0BD8768CF21E02D8753CF29
:100CF00051E05D875ACFC114D104E104F104F1F24F
:100D0000AC84AA2059F0F8941092680010926900FF
:100D100010926A0010926B007894C19AF894209116
:100D200068003091690040916A0050916B00E2B711
:100D3000542F432F322F22272E2B78942617370734
:100D40004807590708F0C198C216D306E406F5060D
:100D500008F08AC02C193D094E095F09232F342F52
:100D6000452F5527F89420936800309369004093ED
:100D70006A0050936B007894C19A1C862FEF221A58
:100D8000320A35E6231631040CF484CE349B82CE2D
:100D9000349AB5B04989433009F4A1C0E3E2AE2EDC
:100DA000A7B8369A8F84B81408F068C02A893B899E
:100DB0002B193109442737FD4095542F2430310534
:100DC0004105510508F455C0B701A6018B2D3BDB49
:100DD000BF8623E0298B212C312C8B2C912C9B8AD4
:100DE0008A8AB29959CEF8942091640030916500B6
:100DF0004091660050916700E2B77894542F432FDA
:100E0000322F22272E2B8E889F88A88CB98C880C95
:100E1000991CAA1CBB1C82169306A406B50608F0F2
:100E2000FFCE1F82188619861A861B8600E01D8257
:100E30001E821E86412C512C3201C12CD12C7601F0
:100E4000B099F0CE10E03A8D32300CF00FCF8E8892
:100E50009F88A88CB98C84149504A604B70408F460
:100E60000ACF0CCF11E0FECE1C8688CFB1E0BE8742
:100E700089CE23E0298B212C312C0CCE2B2D30E078
:100E80008A889B8828193909442737FD4095542FB3
:100E900095CF223108F08DC080E18A8F482F8032B3
:100EA00009F02FCECE88DF88E88CF98CCC0CDD1CC5
:100EB000EE1CFF1CCC0CDD1CEE1CFF1CCC0CDD1C46
:100EC000EE1CFF1CCC0CDD1CEE1CFF1CCC0CDD1C36
:100ED000EE1CFF1CB701A6018F85B5DA4ACE52E29F
:100EE00057B9369A8888B814D8F52C893D892B19BA
:100EF0003109442737FD4095542F223031054105F3
:100F00005105E8F135E0932E9B1408F475C070E2AA
:100F1000372ECE88DF88E88CF98CCC0CDD1CEE1CDB
:100F2000FF1CCC0CDD1CEE1CFF1CCC0CDD1CEE1CD5
:100F3000FF1CCC0CDD1CEE1CFF1CCC0CDD1CEE1CC5
:100F4000FF1CB701A6018F857EDA3A8EB88A42E08F
:100F5000498B212C312C8B2C912C9D8A8C8A9ACDFB
:100F60002B2D30E08C889D8828193909442737FDBE
:100F70004095542F223031054105510518F6F2E015
:100F8000F98B212C312C86CDCE88DF88E88CF98C2A
:100F9000CC0CDD1CEE1CFF1CCC0CDD1CEE1CFF1C65
:100FA000CC0CDD1CEE1CFF1CCC0CDD1CEE1CFF1C55
:100FB00091CF223208F044C088E09ECDCE88DF88F1
:100FC000E88CF98CCC0CDD1CEE1CFF1CCC0CDD1C61
:100FD000EE1CFF1CCC0CDD1CEE1CFF1C7BCFCE8856
:100FE000DF88E88CF98CCC0CDD1CEE1CFF1CCC0CD3
:100FF000DD1CEE1CFF1C6ECF21E1A22EAB1480F194
:1010000060E1362ECE88DF88E88CF98CCC0CDD1CB4
:10101000EE1CFF1CCC0CDD1CEE1CFF1CCC0CDD1CE4
:10102000EE1CFF1CCC0CDD1CEE1CFF1C8ACFCE88F6
:10103000DF88E88CF98CCC0CDD1CEE1CFF1C4ACF41
:10104000203308F046C087E057CDCE88DF88E88C93
:10105000F98CB701A6018F85F6D921E02D8789CDBE
:1010600021E22B1508F463C058E0352ECE88DF88C6
:10107000E88CF98CCC0CDD1CEE1CFF1CCC0CDD1CB0
:10108000EE1CFF1CCC0CDD1CEE1CFF1C5ACFCE88C6
:10109000DF88E88CF98CF694E794D794C794D9CF7D
:1010A000CE88DF88E88CF98CF694E794D794C794BF
:1010B000F694E794D794C794CCCFCE88DF88E88C99
:1010C000F98C83E0F694E794D794C7948A95D1F786
:1010D000C0CF2F3308F062C086E00ECDCE88DF8807
:1010E000E88CF98CB4E0F694E794D794C794BA9559
:1010F000D1F734E6C30ED11CE11CF11CB701A601E7
:101100008F85A1D941E04D8734CDAB2EBB24A1946E
:101110000CF4B0949501442737FD4095542F6E8907
:101120007F89888D998D3FD169017A0119CD3FE280
:101130003B1508F481C047E0342E81E0830D8330F5
:1011400040F18EEF381679F19CEF391609F440C062
:10115000A8EF3A1689F1B0EF3B1609F446C037FC08
:1011600071C0632D772767FD7095872F972F2E8984
:101170003F89488D598D3BD1C22ED32EE42EF52EBA
:10118000B701A6018F855FD93A8EB88A22E0298BF4
:10119000E0CECE88DF88E88CF98CD3CE2D3408F0F1
:1011A00063C085E0A9CCCE88DF88E88CF98CF69402
:1011B000E794D794C794C5CECE88DF88E88CF98CA5
:1011C000A3E0F694E794D794C794AA95D1F7B9CE43
:1011D000CE88DF88E88CF98CF694E794D794C7948E
:1011E000F694E794D794C794ACCECE88DF88E88C89
:1011F000F98CF4E0F694E794D794C794FA95D1F774
:10120000E4E6CE0ED11CE11CF11CB701A6018F85CE
:101210001AD9FA8DF03F09F4B8CF20EF2A8FB88A97
:1012200032E0398B212C312C412C512C32018B2C6A
:10123000912C9D8A8C8A2ECC4EE34B15C8F036E05B
:10124000332E7BCF832C992481940CF490949401B9
:10125000442737FD4095542F6E897F89888D998D5D
:10126000A2D069017A018CCF2B3540F484E044CCC4
:101270005CE45B1538F025E0322E5FCF2936A0F410
:1012800083E03ACC8AE58B1598F094E0392ECE882D
:10129000DF88E88CF98CCC0CDD1CEE1CFF1CCC0C20
:1012A000DD1CEE1CFF1C4DCE273740F482E024CC21
:1012B00098E69B1548F183E0382E3FCF822F5DDB07
:1012C000803409F019CC75016401CC0CDD1CEE1CD6
:1012D000FF1CCC0CDD1CEE1CFF1CCC0CDD1CEE1C22
:1012E000FF1CCC0CDD1CEE1CFF1CCC0CDD1CEE1C12
:1012F000FF1CCC0CDD1CEE1CFF1CB701A6018F856A
:10130000A2D830E43A8F35CCA6E7AB1558F0B2E05E
:101310003B2ECE88DF88E88CF98CCC0CDD1CEE1CD3
:10132000FF1C0FCE8B2D29DB382EB0E48B1326C08B
:10133000CE88DF88E88CF98CCC0CDD1CEE1CFF1C01
:10134000CC0CDD1CEE1CFF1CCC0CDD1CEE1CFF1CB1
:10135000CC0CDD1CEE1CFF1CCC0CDD1CEE1CFF1CA1
:10136000CC0CDD1CEE1CFF1CB701A6018F856BD8D1
:10137000E0E4EA8FB88AF2E0F98BEBCDA0E2AA2E86
:101380008A1509F4C6CD20E1821709F43BCE38E076
:10139000831709F46BCE44E0841709F478CF52E048
:1013A0008513CBCEB6CFA1E21A2EAA1BBB1BFD0123
:1013B0000DC0AA1FBB1FEE1FFF1FA217B307E40734
:1013C000F50720F0A21BB30BE40BF50B661F771F8C
:1013D000881F991F1A9469F760957095809590956C
:1013E0009B01AC01BD01CF01089568940013E894FE
:1013F000A0E0B0E0EDEFF9E01DC0EFEFE7F9590133
:101400006A015E23550FEE08FE2C87019B01AC019B
:101410009E23990F660B762FCB013BD0CDB7DEB75D
:10142000EAE024C02F923F924F925F926F927F9298
:101430008F929F92AF92BF92CF92DF92EF92FF92E4
:101440000F931F93CF93DF93CDB7DEB7CA1BDB0B90
:101450000FB6F894DEBF0FBECDBF09942A88398835
:1014600048885F846E847D848C849B84AA84B9843C
:10147000C884DF80EE80FD800C811B81AA81B98148
:10148000CE0FD11D0FB6F894DEBF0FBECDBFED015C
:101490000895DF93CF939F92A0E49A2E0024D00169
:1014A000E001F00116950795F794E794D794C79457
:1014B000B794A79448F41068A20FB31FC41FD51F98
:1014C000E61FF71F081E191E220F331F441F551F4A
:1014D000661F771F881F991F9A9421F79D01AE01FF
:1014E000BF01C00111249F90CF91DF910895F8941E
:0214F000FFCF2C
:00000001FF
