:100000000EC0E0C027C026C025C025C023C022C026
:1000100021C020C01FC01EC01DC01CC01BC0112499
:100020001FBECFE5D2E0DEBFCDBF10E0A0E6B0E05E
:10003000E2EBF4E102C005900D92A437B107D9F7C5
:1000400020E0A4E7B0E001C01D92A538B207E1F7B7
:10005000C5D42DCAD5CF1F920F920FB60F9211247F
:100060008F939F93AF93BF93809180009091810075
:10007000A0918200B09183000196A11DB11D8093D3
:10008000800090938100A0938200B09383008091C0
:10009000780090917900A0917A00B0917B00019650
:1000A000A11DB11D8093780090937900A0937A00F0
:1000B000B0937B0080917C0090917D00A0917E00A8
:1000C000B0917F000196A11DB11D80937C0090939B
:1000D0007D00A0937E00B0937F00BF91AF919F9170
:1000E0008F910F900FBE0F901F901895F8948091EC
:1000F0007C0090917D00A0917E00B0917F0022B79E
:1001000078946627782F892F9A2F622B0895F89478
:100110008091800090918100A0918200B091830035
:1001200022B778946627782F892F9A2F622B08950B
:10013000F8948091780090917900A0917A00B09124
:100140007B0022B778946627782F892F9A2F622B0D
:100150000895F8941ABC82E083BF12BE89B782600A
:1001600089BF10927C0010927D0010927E00109248
:100170007F001092800010928100109282001092F5
:100180008300109278001092790010927A001092F9
:100190007B0078940895BA98C298B99AB898C09894
:1001A000089587B3837F87BB88B3837F88BB88E14B
:1001B00084BB80E886B983E287B986B1876086B957
:1001C000369A08951F920F920FB60F9211242F9313
:1001D0008F939F93AF93BF93B29B1EC0809180007B
:1001E00090918100A0918200B091830022B7BA2F34
:1001F000A92F982F8827822B8093740090937500E5
:10020000A0937600B0937700109280001092810046
:100210001092820010928300BF91AF919F918F91B5
:100220002F910F900FBE0F901F90189583E085BF00
:1002300080E48BBF0895863010F487E10895823101
:1002400010F483E10895823210F481E1089580333F
:1002500010F48DE008958F3310F48BE008958D3401
:1002600010F487E008958B3510F485E00895893601
:1002700010F483E00895873710F482E0089588C36E
:10028000CF92DF92EF92FF929A01AB01803409F492
:1002900043C0803209F45FC0803109F477C08830F0
:1002A00041F1843009F489C0823009F491C091E0B1
:1002B000980F933008F493C08E3F09F4A1C08C3F8F
:1002C00009F4A5C0883F09F4ADC0803F09F48AC095
:1002D00087FDB2C0682F772767FD7095872F972F0E
:1002E00066D8A32FF42FE52F622F7A2F8F2F9E2F02
:1002F0000EC0CA01B901660F771F881F991F660FCC
:10030000771F881F991F660F771F881F991FFF90FF
:10031000EF90DF90CF900895CA01B901660F771F63
:10032000881F991F660F771F881F991F660F771FF9
:10033000881F991F660F771F881F991F660F771FE9
:10034000881F991F660F771F881F991FFF90EF90D6
:10035000DF90CF900895CA01B901660F771F881FFB
:10036000991F660F771F881F991F660F771F881FB9
:10037000991F660F771F881F991F660F771F881FA9
:10038000991FFF90EF90DF90CF900895CA01B901B7
:10039000660F771F881F991F660F771F881F991F89
:1003A000660F771F881F991F660F771F881F991F79
:1003B000FF90EF90DF90CF900895CA01B901660FCA
:1003C000771F881F991F660F771F881F991F9FCF60
:1003D000CA01B901660F771F881F991F98CFCA01FC
:1003E000B90195CFCA01B90124E096958795779513
:1003F00067952A95D1F76C597F4F8F4F9F4F87CFC5
:10040000CA01B901969587957795679580CFCA01FE
:10041000B901969587957795679596958795779580
:10042000679575CFCA01B90133E0969587957795A1
:1004300067953A95D1F76BCF682F772761950CF4C4
:1004400070956B01EE24D7FCE094FE2CCA01B90133
:10045000A701960188D7CA01B90159CFCF92DF927F
:10046000EF92FF920F931F938A019B01E82FE09573
:10047000E430F8F4013345E714072105310508F4A9
:100480004BC060E177E280E090E000511742210923
:100490003109EA3F28F4061717072807390710F42F
:1004A000C901B8011F910F91FF90EF90DF90CF909D
:1004B0000895EE30B0F4CB01BA01F5E0969587953A
:1004C00077956795FA95D1F7013345E7140721052C
:1004D000310540F3603147E274078105910588F2E8
:1004E000D4CFE83148F1E23288F5CB01BA01B5E06A
:1004F0009695879577956795BA95D1F768017901B3
:1005000044E0F694E794D794C7944A95D1F76C0DDC
:100510007D1D8E1D9F1DD8CFC901B801A6E09695FF
:10052000879577956795AA95D1F71F910F91FF90C1
:10053000EF90DF90CF900895CB01BA0154E09695EB
:100540008795779567955A95D1F7BECFEC32C8F06D
:10055000E63308F5CB01BA0155E096958795779576
:1005600067955A95D1F768017901F3E0F694E7941D
:10057000D794C794FA95D1F76C0D7D1D8E1D9F1DE4
:10058000A3CFCB01BA01A3E09695879577956795A0
:10059000AA95D1F799CFE034B8F4CB01BA01B4E011
:1005A0009695879577956795BA95D1F76801790102
:1005B00043E0F694E794D794C7944A95D1F76C0D2D
:1005C0007D1D8E1D9F1D80CFEA3420F5CB01BA0121
:1005D00054E096958795779567955A95D1F7680178
:1005E0007901F3E0F694E794D794C794FA95D1F79C
:1005F0006C0D7D1D8E1D9F1D68017901A5E0F6948F
:10060000E794D794C794AA95D1F76C0D7D1D8E1DE4
:100610009F1D5ACFE53558F4CB01BA0196958795C1
:100620007795679596958795779567954DCFEE3534
:10063000C0F4CB01BA01A4E09695879577956795AC
:10064000AA95D1F768017901F694E794D794C794F5
:10065000F694E794D794C7946C0D7D1D8E1D9F1D55
:1006600033CFE836C0F4CB01BA0153E096958795B5
:10067000779567955A95D1F768017901F694E794D3
:10068000D794C794F694E794D794C7946C0D7D1DC6
:100690008E1D9F1D19CFE23728F5CB01BA01A3E0CB
:1006A0009695879577956795AA95D1F76801790111
:1006B000F694E794D794C794F694E794D794C794A4
:1006C0006C0D7D1D8E1D9F1D6801790144E0F6941F
:1006D000E794D794C7944A95D1F76C0D7D1D8E1D74
:1006E0009F1DF2CEEC3838F4CB01BA019695879570
:1006F00077956795E9CEE639A0F4CB01BA0145E0DC
:1007000096958795779567954A95D1F76801790110
:10071000F694E794D794C7946C0D7D1D8E1D9F1D94
:10072000D3CEE03AA0F4CB01BA01A4E09695879528
:1007300077956795AA95D1F768017901F694E794C2
:10074000D794C7946C0D7D1D8E1D9F1DBDCEEA3ABA
:1007500008F5CB01BA01F4E09695879577956795F2
:10076000FA95D1F768017901F694E794D794C79484
:100770006C0D7D1D8E1D9F1D68017901A5E0F6940D
:10078000E794D794C794AA95D1F76C0D7D1D8E1D63
:100790009F1D9ACEE43BA0F4CB01BA0143E09695AD
:1007A0008795779567954A95D1F768017901F69411
:1007B000E794D794C7946C0D7D1D8E1D9F1D84CE2C
:1007C000EE3B50F4CB01BA01B3E09695879577954F
:1007D0006795BA95D1F7C6CFE83C08F5CB01BA01C9
:1007E00053E096958795779567955A95D1F7680167
:1007F0007901F694E794D794C7946C0D7D1D8E1DF6
:100800009F1D68017901A4E0F694E794D794C794FA
:10081000AA95D1F76C0D7D1D8E1D9F1D55CEE23D15
:1008200070F5CB01BA01F3E09695879577956795BA
:10083000FA95D1F768017901F694E794D794C794B3
:100840006C0D7D1D8E1D9F1D68017901B4E0F6942D
:10085000E794D794C794BA95D1F76C0D7D1D8E1D82
:100860009F1D6801790145E0F694E794D794C794F9
:100870004A95D1F76C0D7D1D8E1D9F1D25CEEC3D3B
:10088000A8F4CB01BA0196958795779567959695CB
:1008900087957795679568017901F694E794D794E1
:1008A000C7946C0D7D1D8E1D9F1D0ECEE63E58F427
:1008B000CB01BA019695879577956795969587951B
:1008C0007795679594CFE03F10F5CB01BA019695E7
:1008D000879577956795969587957795679568013C
:1008E0007901F694E794D794C7946C0D7D1D8E1D05
:1008F0009F1D6801790153E0F694E794D794C7945B
:100900005A95D1F76C0D7D1D8E1D9F1DDDCDEA3FE3
:1009100078F5CB01BA019695879577956795969569
:1009200087957795679568017901F694E794D79450
:10093000C7946C0D7D1D8E1D9F1D68017901F3E02C
:10094000F694E794D794C794FA95D1F76C0D7D1D72
:100950008E1D9F1D68017901A4E0F694E794D79459
:10096000C794AA95D1F76C0D7D1D8E1D9F1DACCD32
:1009700085E076956795579547958A95D1F76801F3
:100980007901C41AD50AE60AF70AC701B6019CCD57
:10099000843890F0813990F08F3990F08D3A90F052
:1009A0008B3B90F0893C90F0883D90F0863E90F033
:1009B000833F90F48DEE089581E008958EEF0895C1
:1009C0008DEF08958BEF089589EF089585EF0895D1
:1009D00083EF08958FEE089589EE0895CF93DF9306
:1009E000CDB7DEB7EB970FB6F894DEBF0FBECDBF25
:1009F00083E19E012C5E3F4F38A72FA3D901E82F3A
:100A00001D92EA95E9F7E0E6F0E0DE01119601902B
:100A10000D928A95E1F7F8941ABC82E083BF12BE6A
:100A200089B7826089BF10927C0010927D0010927D
:100A30007E0010927F001092800010928100109230
:100A40008200109283001092780010927900109228
:100A50007A0010927B0078949EDB83E085BF80E46F
:100A60008BBF9FDB8FE19EE40197F1F700C0000090
:100A7000C19893E09BABA1E0ADA7BFE7B9ABEFE7AF
:100A8000EAABF1E0FFA718AA1EA600E010E0412C97
:100A9000512C320160E070E0CB01C12CD12C7601E9
:100AA000812C912C54019E01295D3F4F19014FE784
:100AB00050E05FAB4EABAFE7B0E0BDABACAB88AEE8
:100AC00099AEAAAEBBAEB29B65C1209174003091C5
:100AD00075004091760050917700232B242B252B15
:100AE00009F458C18090740090907500A090760031
:100AF000B090770088AE99AEAAAEBBAE10927400EB
:100B0000109275001092760010927700F89410926F
:100B100078001092790010927A0010927B007894FD
:100B20002AA9263008F094C187E18DA73DA5303170
:100B300009F4F3C1383009F410C2343009F420C28A
:100B4000323009F441C2832F8F5F833008F44BC2E7
:100B50003DA53E3F09F457C23C3F09F45DC2383F12
:100B600009F467C2303F09F474C237FD8DC2632FA8
:100B7000772767FD7095872F972F28AD39AD4AAD40
:100B80005BAD15D4C22ED32EE42EF52EB701A601EF
:100B900089A964DC2DA5223014F431E03FA7FE01C1
:100BA0007496DE0111968DA4282D332727FD3095EC
:100BB00088AC99ACAAACBBACAB01BC0190819F5F87
:100BC00090838D91981730F090E02817390709F439
:100BD00067C010823196E215F30581F788AE99AEB1
:100BE000AAAEBBAECB01BA01B09B0DC19EA49110C1
:100BF0001AC1C1981C8A1D8A1E8A1F8A188E198ED6
:100C00001A8E1B8E1C8E1D8E1E8E1F8E18A219A270
:100C10001AA21BA21CA21DA21EA2F894409078004A
:100C20005090790060907A0070907B0022B7762C0B
:100C3000652C542C4424422A78941FA621E028AB2A
:100C400031E03EA75DA552300CF4E2C0C414D504D7
:100C5000E604F70418F4412C512C3201F894209149
:100C600078003091790040917A0050917B00E2B792
:100C70007894542F432F322F22272E2B24153505FD
:100C80004605570580F09FA4992069F01FA6C1145E
:100C9000D104E104F10479F431E038ABC19846C0E5
:100CA00081E08FA796CFC114D104E104F104B1F320
:100CB000A8A8AA2059F0F89410927C0010927D0008
:100CC00010927E0010927F007894C19AF89420913F
:100CD0007C0030917D0040917E0050917F00E2B712
:100CE000542F432F322F22272E2B78942617370785
:100CF0004807590708F0C198C216D306E406F5065E
:100D000008F094C02C193D094E095F09232F342F98
:100D1000452F5527F89420937C0030937D00409315
:100D20007E0050937F007894C19A18AA0F5F1F4FDE
:100D3000053611050CF4C7CE349BC5CE349A15B1D7
:100D40002BA9233009F489C0B3E2AB2EA7B8369A99
:100D5000B9A81B1508F071C02CA93DA9211B3109A8
:100D6000442737FD4095542F243031054105510566
:100D700008F45EC0B701A601812F70DB19AB23E038
:100D80002BAB00E010E099A8892C912C9DAA8CAA8D
:100D9000B2999BCEF89420917800309179004091DF
:100DA0007A0050917B00E2B77894542F432F322F72
:100DB00022272E2B88AC99ACAAACBBAC880C991C12
:100DC000AA1CBB1C82169306A406B50608F00CCF1D
:100DD0001C8A1D8A1E8A1F8A188E198E1A8E1B8ED7
:100DE0001C8E1D8E1E8E1F8E18A219A21AA21BA267
:100DF0001CA21DA21EA2412C512C3201C12CD12CAF
:100E00007601B099F3CE1EA65DA552300CF01ECF30
:100E100088AC99ACAAACBBAC84149504A604B70406
:100E200008F419CF1BCF41E04EA70CCF18AA7ECFF4
:100E300023E02BAB00E010E046CE212F30E08CA861
:100E40009DA828193909442737FD4095542F8CCF88
:100E5000223108F07DC083E168CE32E237B9369A9C
:100E60008AA8181508F044C02EA93FA9211B3109F2
:100E7000442737FD4095542F223031054105510557
:100E800008F446C0163008F08AC007E181E0800F00
:100E9000833008F48CC00E3F09F408C10C3F09F4FC
:100EA00014C1083F09F437C1003F09F446C107FDEA
:100EB00020C1602F772767FD7095872F972F28AD6A
:100EC00039AD4AAD5BAD73D2C22ED32EE42EF52ED2
:100ED000B701A60189A9C2DA0DA71AAB22E02BAB94
:100EE00000E010E09AA8892C912C9FAA8EAAEBCD45
:100EF000212F30E0AEA8BFA82A193B09442737FDAF
:100F00004095542F223031054105510508F0BACFE4
:100F1000B2E0BBAB00E010E0D6CDC8ACD9ACEAACD7
:100F2000FBACCC0CDD1CEE1CFF1CCC0CDD1CEE1C49
:100F3000FF1CCC0CDD1CEE1CFF1CCC0CDD1CEE1CC5
:100F4000FF1C20E12DA7B701A60189A987DA27CECA
:100F5000223208F044C081E1E8CDC8ACD9ACEAAC9B
:100F6000FBACCC0CDD1CEE1CFF1CCC0CDD1CEE1C09
:100F7000FF1CCC0CDD1CEE1CFF1C28E02DA7E3CFD2
:100F8000C8ACD9ACEAACFBACCC0CDD1CEE1CFF1C35
:100F9000CC0CDD1CEE1CFF1C24E02DA7D4CF12319D
:100FA00068F503E181E0800F833008F074CF0DA76E
:100FB000C8ACD9ACEAACFBACB701A60189A94EDA42
:100FC0001AAB42E04BAB8CCFC8ACD9ACEAACFBACB3
:100FD000CC0CDD1CEE1CFF1C22E02DA7B4CF20336F
:100FE000A0F58DE0A2CDC8ACD9ACEAACFBACB701A2
:100FF000A60189A933DA21E02FA7D1CD123208F05A
:101000003FC001E143CFC8ACD9ACEAACFBACF6942D
:10101000E794D794C794EBCFC8ACD9ACEAACFBAC9F
:10102000F694E794D794C794F694E794D794C7942A
:10103000DECFC8ACD9ACEAACFBAC83E0F694E79465
:10104000D794C7948A95D1F7D2CF2F33D0F58BE0C0
:101050006CCDC8ACD9ACEAACFBACB4E0F694E79488
:10106000D794C794BA95D1F794E6C90ED11CE11C68
:10107000F11CB701A60189A9F1D9A1E0AFA78FCDD5
:10108000103390F50DE002CFA32EBB24A1940CF4F5
:10109000B0949501442737FD4095542F68AD79AD44
:1010A0008AAD9BAD60D169017A0170CDC8ACD9AC75
:1010B000EAACFBACF694E794D794C7949EEF9DA757
:1010C0007BCF2D34B0F587E030CDC8ACD9ACEAACDD
:1010D000FBACF694E794D794C794F694E794D7942E
:1010E000C794ACEFADA768CF1F3308F04EC00BE03C
:1010F000CDCE802E992481940CF4909494014427B1
:1011000037FD4095542F68AD79AD8AAD9BAD2BD19D
:1011100069017A01DDCEC8ACD9ACEAACFBAC83E0A6
:10112000F694E794D794C7948A95D1F7B8EFBDA702
:1011300043CF2B3570F585E0F8CCC8ACD9ACEAAC20
:10114000FBAC04E0F694E794D794C7940A95D1F7E2
:10115000E4E6CE0ED11CE11CF11CB701A60189A961
:101160007DD9FDA5F03F09F4B8CEE0EFEDA71AABAD
:10117000F2E0FBAB00E010E0412C512C32019AA8C8
:10118000892C912C9FAA8EAA9ECC1D3430F407E0A6
:101190007DCE293630F483E0C8CC1B3530F405E031
:1011A00075CE273730F482E0C0CC193640F503E025
:1011B0006DCE822FEDDB8DA7803471F57501640152
:1011C000CC0CDD1CEE1CFF1CCC0CDD1CEE1CFF1C33
:1011D000CC0CDD1CEE1CFF1CCC0CDD1CEE1CFF1C23
:1011E000CC0CDD1CEE1CFF1CCC0CDD1CEE1CFF1C13
:1011F000B701A60189A932D930E43DA7D0CC173771
:1012000038F5C8ACD9ACEAACFBACCC0CDD1CEE1CA0
:10121000FF1C82E08DA7D0CE803209F087CCC8AC0D
:10122000D9ACEAACFBACCC0CDD1CEE1CFF1CCC0C2E
:10123000DD1CEE1CFF1CCC0CDD1CEE1CFF1CCC0CC2
:10124000DD1CEE1CFF1CCC0CDD1CEE1CFF1C7BCE41
:10125000812F9EDB082F803431F5C8ACD9ACEAACC5
:10126000FBACCC0CDD1CEE1CFF1CCC0CDD1CEE1C06
:10127000FF1CCC0CDD1CEE1CFF1CCC0CDD1CEE1C82
:10128000FF1CCC0CDD1CEE1CFF1CCC0CDD1CEE1C72
:10129000FF1CB701A60189A9E1D820E42DA71AAB4C
:1012A00032E03BAB1DCE8032D9F4C8ACD9ACEAAC4D
:1012B000FBACCC0CDD1CEE1CFF1CCC0CDD1CEE1CB6
:1012C000FF1CCC0CDD1CEE1CFF1CCC0CDD1CEE1C32
:1012D000FF1CCC0CDD1CEE1CFF1C20E22DA76CCEED
:1012E000803141F08830E9F0843071F1823009F0CA
:1012F000CDCD87CFC8ACD9ACEAACFBACCC0CDD1CF7
:10130000EE1CFF1CCC0CDD1CEE1CFF1CCC0CDD1CF1
:10131000EE1CFF1CCC0CDD1CEE1CFF1C30E13DA7BD
:101320004BCEC8ACD9ACEAACFBACCC0CDD1CEE1C93
:10133000FF1CCC0CDD1CEE1CFF1CCC0CDD1CEE1CC1
:10134000FF1C48E04DA738CEC8ACD9ACEAACFBAC2A
:10135000CC0CDD1CEE1CFF1CCC0CDD1CEE1CFF1CA1
:1013600054E05DA729CEA1E21A2EAA1BBB1BFD01EA
:101370000DC0AA1FBB1FEE1FFF1FA217B307E40774
:10138000F50720F0A21BB30BE40BF50B661F771FCC
:10139000881F991F1A9469F76095709580959095AC
:1013A0009B01AC01BD01CF01089568940013E8943E
:1013B000A0E0B0E0EDEDF9E01DC0EFEFE7F9590175
:1013C0006A015E23550FEE08FE2C87019B01AC01DC
:1013D0009E23990F660B762FCB013BD0CDB7DEB79E
:1013E000EAE024C02F923F924F925F926F927F92D9
:1013F0008F929F92AF92BF92CF92DF92EF92FF9225
:101400000F931F93CF93DF93CDB7DEB7CA1BDB0BD0
:101410000FB6F894DEBF0FBECDBF09942A88398875
:1014200048885F846E847D848C849B84AA84B9847C
:10143000C884DF80EE80FD800C811B81AA81B98188
:10144000CE0FD11D0FB6F894DEBF0FBECDBFED019C
:101450000895DF93CF939F92A0E49A2E0024D001A9
:10146000E001F00116950795F794E794D794C79497
:10147000B794A79448F41068A20FB31FC41FD51FD8
:10148000E61FF71F081E191E220F331F441F551F8A
:10149000661F771F881F991F9A9421F79D01AE013F
:1014A000BF01C00111249F90CF91DF910895F8945E
:0214B000FFCF6C
:1014B200E9EDEFF3F5F9FBFDFE01020305070B0D64
:0414C20011131700EB
:00000001FF
