:100000000EC0E0C027C026C025C025C023C022C026
:1000100021C020C01FC01EC01DC01CC01BC0112499
:100020001FBECFE5D2E0DEBFCDBF10E0A0E6B0E05E
:10003000E6E8F4E102C005900D92A437B107D9F7C4
:1000400020E0A4E7B0E001C01D92A538B207E1F7B7
:10005000C5D417CAD5CF1F920F920FB60F92112495
:100060008F939F93AF93BF93809180009091810075
:10007000A0918200B09183000196A11DB11D8093D3
:10008000800090938100A0938200B09383008091C0
:10009000780090917900A0917A00B0917B00019650
:1000A000A11DB11D8093780090937900A0937A00F0
:1000B000B0937B0080917C0090917D00A0917E00A8
:1000C000B0917F000196A11DB11D80937C0090939B
:1000D0007D00A0937E00B0937F00BF91AF919F9170
:1000E0008F910F900FBE0F901F901895F8948091EC
:1000F0007C0090917D00A0917E00B0917F0022B79E
:1001000078946627782F892F9A2F622B0895F89478
:100110008091800090918100A0918200B091830035
:1001200022B778946627782F892F9A2F622B08950B
:10013000F8948091780090917900A0917A00B09124
:100140007B0022B778946627782F892F9A2F622B0D
:100150000895F8941ABC82E083BF12BE89B782600A
:1001600089BF10927C0010927D0010927E00109248
:100170007F001092800010928100109282001092F5
:100180008300109278001092790010927A001092F9
:100190007B0078940895BA98C298B99AB898C09894
:1001A000089587B3837F87BB88B3837F88BB88E14B
:1001B00084BB80E886B983E287B986B1876086B957
:1001C000369A08951F920F920FB60F9211242F9313
:1001D0008F939F93AF93BF93B29B1EC0809180007B
:1001E00090918100A0918200B091830022B7BA2F34
:1001F000A92F982F8827822B8093740090937500E5
:10020000A0937600B0937700109280001092810046
:100210001092820010928300BF91AF919F918F91B5
:100220002F910F900FBE0F901F90189583E085BF00
:1002300080E48BBF0895863010F480E20895823107
:1002400010F480E10895823210F488E0089580333C
:1002500010F487E008958F3310F486E008958D340C
:1002600010F485E008958B3510F484E00895893604
:1002700010F483E00895873710F482E0089588C36E
:10028000CF92DF92EF92FF929A01AB01803409F492
:1002900043C0803209F45FC0803109F477C08830F0
:1002A00041F1843009F489C0823009F491C091E0B1
:1002B000980F933008F493C08E3F09F4A1C08C3F8F
:1002C00009F4A5C0883F09F4ADC0803F09F48AC095
:1002D00087FDB2C0682F772767FD7095872F972F0E
:1002E00050D8A32FF42FE52F622F7A2F8F2F9E2F18
:1002F0000EC0CA01B901660F771F881F991F660FCC
:10030000771F881F991F660F771F881F991FFF90FF
:10031000EF90DF90CF900895CA01B901660F771F63
:10032000881F991F660F771F881F991F660F771FF9
:10033000881F991F660F771F881F991F660F771FE9
:10034000881F991F660F771F881F991FFF90EF90D6
:10035000DF90CF900895CA01B901660F771F881FFB
:10036000991F660F771F881F991F660F771F881FB9
:10037000991F660F771F881F991F660F771F881FA9
:10038000991FFF90EF90DF90CF900895CA01B901B7
:10039000660F771F881F991F660F771F881F991F89
:1003A000660F771F881F991F660F771F881F991F79
:1003B000FF90EF90DF90CF900895CA01B901660FCA
:1003C000771F881F991F660F771F881F991F9FCF60
:1003D000CA01B901660F771F881F991F98CFCA01FC
:1003E000B90195CFCA01B90124E096958795779513
:1003F00067952A95D1F76C597F4F8F4F9F4F87CFC5
:10040000CA01B901969587957795679580CFCA01FE
:10041000B901969587957795679596958795779580
:10042000679575CFCA01B90133E0969587957795A1
:1004300067953A95D1F76BCF682F772761950CF4C4
:1004400070956B01EE24D7FCE094FE2CCA01B90133
:10045000A701960172D7CA01B90159CFCF92DF9295
:10046000EF92FF920F931F938A019B01E82FE09573
:10047000E430F8F4013345E714072105310508F4A9
:100480004BC060E177E280E090E000511742210923
:100490003109EA3F28F4061717072807390710F42F
:1004A000C901B8011F910F91FF90EF90DF90CF909D
:1004B0000895EE30B0F4CB01BA01F5E0969587953A
:1004C00077956795FA95D1F7013345E7140721052C
:1004D000310540F3603147E274078105910588F2E8
:1004E000D4CFE83148F1E23288F5CB01BA01B5E06A
:1004F0009695879577956795BA95D1F768017901B3
:1005000044E0F694E794D794C7944A95D1F76C0DDC
:100510007D1D8E1D9F1DD8CFC901B801A6E09695FF
:10052000879577956795AA95D1F71F910F91FF90C1
:10053000EF90DF90CF900895CB01BA0154E09695EB
:100540008795779567955A95D1F7BECFEC32C8F06D
:10055000E63308F5CB01BA0155E096958795779576
:1005600067955A95D1F768017901F3E0F694E7941D
:10057000D794C794FA95D1F76C0D7D1D8E1D9F1DE4
:10058000A3CFCB01BA01A3E09695879577956795A0
:10059000AA95D1F799CFE034B8F4CB01BA01B4E011
:1005A0009695879577956795BA95D1F76801790102
:1005B00043E0F694E794D794C7944A95D1F76C0D2D
:1005C0007D1D8E1D9F1D80CFEA3420F5CB01BA0121
:1005D00054E096958795779567955A95D1F7680178
:1005E0007901F3E0F694E794D794C794FA95D1F79C
:1005F0006C0D7D1D8E1D9F1D68017901A5E0F6948F
:10060000E794D794C794AA95D1F76C0D7D1D8E1DE4
:100610009F1D5ACFE53558F4CB01BA0196958795C1
:100620007795679596958795779567954DCFEE3534
:10063000C0F4CB01BA01A4E09695879577956795AC
:10064000AA95D1F768017901F694E794D794C794F5
:10065000F694E794D794C7946C0D7D1D8E1D9F1D55
:1006600033CFE836C0F4CB01BA0153E096958795B5
:10067000779567955A95D1F768017901F694E794D3
:10068000D794C794F694E794D794C7946C0D7D1DC6
:100690008E1D9F1D19CFE23728F5CB01BA01A3E0CB
:1006A0009695879577956795AA95D1F76801790111
:1006B000F694E794D794C794F694E794D794C794A4
:1006C0006C0D7D1D8E1D9F1D6801790144E0F6941F
:1006D000E794D794C7944A95D1F76C0D7D1D8E1D74
:1006E0009F1DF2CEEC3838F4CB01BA019695879570
:1006F00077956795E9CEE639A0F4CB01BA0145E0DC
:1007000096958795779567954A95D1F76801790110
:10071000F694E794D794C7946C0D7D1D8E1D9F1D94
:10072000D3CEE03AA0F4CB01BA01A4E09695879528
:1007300077956795AA95D1F768017901F694E794C2
:10074000D794C7946C0D7D1D8E1D9F1DBDCEEA3ABA
:1007500008F5CB01BA01F4E09695879577956795F2
:10076000FA95D1F768017901F694E794D794C79484
:100770006C0D7D1D8E1D9F1D68017901A5E0F6940D
:10078000E794D794C794AA95D1F76C0D7D1D8E1D63
:100790009F1D9ACEE43BA0F4CB01BA0143E09695AD
:1007A0008795779567954A95D1F768017901F69411
:1007B000E794D794C7946C0D7D1D8E1D9F1D84CE2C
:1007C000EE3B50F4CB01BA01B3E09695879577954F
:1007D0006795BA95D1F7C6CFE83C08F5CB01BA01C9
:1007E00053E096958795779567955A95D1F7680167
:1007F0007901F694E794D794C7946C0D7D1D8E1DF6
:100800009F1D68017901A4E0F694E794D794C794FA
:10081000AA95D1F76C0D7D1D8E1D9F1D55CEE23D15
:1008200070F5CB01BA01F3E09695879577956795BA
:10083000FA95D1F768017901F694E794D794C794B3
:100840006C0D7D1D8E1D9F1D68017901B4E0F6942D
:10085000E794D794C794BA95D1F76C0D7D1D8E1D82
:100860009F1D6801790145E0F694E794D794C794F9
:100870004A95D1F76C0D7D1D8E1D9F1D25CEEC3D3B
:10088000A8F4CB01BA0196958795779567959695CB
:1008900087957795679568017901F694E794D794E1
:1008A000C7946C0D7D1D8E1D9F1D0ECEE63E58F427
:1008B000CB01BA019695879577956795969587951B
:1008C0007795679594CFE03F10F5CB01BA019695E7
:1008D000879577956795969587957795679568013C
:1008E0007901F694E794D794C7946C0D7D1D8E1D05
:1008F0009F1D6801790153E0F694E794D794C7945B
:100900005A95D1F76C0D7D1D8E1D9F1DDDCDEA3FE3
:1009100078F5CB01BA019695879577956795969569
:1009200087957795679568017901F694E794D79450
:10093000C7946C0D7D1D8E1D9F1D68017901F3E02C
:10094000F694E794D794C794FA95D1F76C0D7D1D72
:100950008E1D9F1D68017901A4E0F694E794D79459
:10096000C794AA95D1F76C0D7D1D8E1D9F1DACCD32
:1009700085E076956795579547958A95D1F76801F3
:100980007901C41AD50AE60AF70AC701B6019CCD57
:10099000843890F0813990F08F3990F08D3A90F052
:1009A0008B3B90F0893C90F0883D90F0863E90F033
:1009B000833F90F484EF089581E008958EEF0895C9
:1009C0008DEF08958CEF08958BEF08958AEF0895C9
:1009D00089EF089588EF089580EF0895CF93DF930E
:1009E000CDB7DEB7EB970FB6F894DEBF0FBECDBF25
:1009F00083E19E012C5E3F4F38A72FA3D901E82F3A
:100A00001D92EA95E9F7E0E6F0E0DE01119601902B
:100A10000D928A95E1F7F8941ABC82E083BF12BE6A
:100A200089B7826089BF10927C0010927D0010927D
:100A30007E0010927F001092800010928100109230
:100A40008200109283001092780010927900109228
:100A50007A0010927B0078949EDB83E085BF80E46F
:100A60008BBF9FDB8FE19EE40197F1F700C0000090
:100A7000C19893E09BABA1E0ADA7BFE7B9ABEFE7AF
:100A8000EAABF1E0FFA718AA1EA600E010E0C12C17
:100A9000D12C760160E070E0CB01812C912C5401C7
:100AA000412C512C32019E01295D3F4F19014FE726
:100AB00050E05FAB4EABAFE7B0E0BDABACAB48AE28
:100AC00059AE6AAE7BAEB29B68C120917400309182
:100AD00075004091760050917700232B242B252B15
:100AE00009F45BC1409074005090750060907600EE
:100AF0007090770048AE59AE6AAE7BAE109274002B
:100B0000109275001092760010927700F89410926F
:100B100078001092790010927A0010927B007894FD
:100B20002AA9263008F097C180E28DA7482F80328D
:100B300009F49AC1803109F407C2483009F41EC291
:100B4000443009F42CC2423009F44EC2842F8F5F26
:100B5000833008F457C2BDA5BE3F09F473C2BC3F41
:100B600009F479C2B83F09F483C2B03F09F491C2D5
:100B7000B7FDA6C26B2F772767FD7095872F972F3C
:100B800028AD39AD4AAD5BADFCD3822E932EA42E99
:100B9000B52EB501A40189A961DC2DA5223014F47C
:100BA00031E03FA7FE017496DE0111964DA4242D7D
:100BB000332727FD309548AC59AC6AAC7BACAB0110
:100BC000BC0190819F5F90838D91981730F090E0E9
:100BD0002817390709F467C010823196E215F3052A
:100BE00081F748AE59AE6AAE7BAECB01BA01B09B7D
:100BF0000DC15EA451101AC1C1981C8A1D8A1E8A9B
:100C00001F8A188E198E1A8E1B8E1C8E1D8E1E8E9C
:100C10001F8E18A219A21AA21BA21CA21DA21EA2FC
:100C2000F894C0907800D0907900E0907A00F0902D
:100C30007B0022B7FE2CED2CDC2CCC24C22A78942D
:100C40001FA621E028AB31E03EA75DA552300CF491
:100C5000E2C08C149D04AE04BF0418F4C12CD12C46
:100C60007601F894209178003091790040917A00D3
:100C700050917B00E2B77894542F432F322F2227D4
:100C80002E2B2C153D054E055F0580F05FA45520E9
:100C900069F01FA681149104A104B10479F431E034
:100CA00038ABC19846C081E08FA796CF81149104DC
:100CB000A104B104B1F368A8662059F0F894109229
:100CC0007C0010927D0010927E0010927F0078943C
:100CD000C19AF89420917C0030917D0040917E0073
:100CE00050917F00E2B7542F432F322F22272E2B13
:100CF0007894261737074807590708F0C1988216D5
:100D00009306A406B50608F094C0281939094A09C3
:100D10005B09232F342F452F5527F89420937C000F
:100D200030937D0040937E0050937F007894C19A69
:100D300018AA0F5F1F4F053611050CF4C4CE349B63
:100D4000C2CE349A15B12BA9233009F4AAC0B3E25C
:100D50006B2E67B8369A79A8171508F071C02CA9C0
:100D60003DA9211B3109442737FD4095542F2430DC
:100D700031054105510508F45EC0B501A401812F7C
:100D80006DDB19AB23E02BAB00E010E059A8452C3C
:100D9000512C5DAA4CAAB29998CEF8942091780073
:100DA0003091790040917A0050917B00E2B77894BD
:100DB000542F432F322F22272E2B48AC59AC6AAC2C
:100DC0007BAC440C551C661C771C4216530664060B
:100DD000750608F00CCF1C8A1D8A1E8A1F8A188E81
:100DE000198E1A8E1B8E1C8E1D8E1E8E1F8E18A2A3
:100DF00019A21AA21BA21CA21DA21EA2C12CD12C98
:100E00007601812C912C5401B099F3CE1EA65DA5DC
:100E100052300CF01ECF48AC59AC6AAC7BAC4C14D1
:100E20005D046E047F0408F419CF1BCF41E04EA788
:100E30000CCF18AA7ECF23E02BAB00E010E043CE0E
:100E4000212F30E04CA85DA824193509442737FD2F
:100E50004095542F8CCF223108F08BC080E18DA7B4
:100E6000482F803209F066CE88AC99ACAAACBBACF6
:100E7000880C991CAA1CBB1C880C991CAA1CBB1CA6
:100E8000880C991CAA1CBB1C880C991CAA1CBB1C96
:100E9000880C991CAA1CBB1CB501A40189A9DEDA27
:100EA00081CE32E237B9369A4AA81415C8F52EA970
:100EB0003FA9211B3109442737FD4095542F22308B
:100EC000310541055105D8F1163008F075C000E232
:100ED00088AC99ACAAACBBAC880C991CAA1CBB1CF6
:100EE000880C991CAA1CBB1C880C991CAA1CBB1C36
:100EF000880C991CAA1CBB1C880C991CAA1CBB1C26
:100F0000B501A40189A9AADA0DA71AAB42E04BAB3F
:100F100000E010E05AA8452C512C5FAA4EAAD3CD70
:100F2000212F30E06EA87FA826193709442737FD06
:100F30004095542F223031054105510528F6B2E085
:100F4000BBAB00E010E0BFCD88AC99ACAAACBBACA9
:100F5000880C991CAA1CBB1C880C991CAA1CBB1CC5
:100F6000880C991CAA1CBB1C880C991CAA1CBB1CB5
:100F700093CF223208F041C088E0D7CD88AC99AC3D
:100F8000AAACBBAC880C991CAA1CBB1C880C991C75
:100F9000AA1CBB1C880C991CAA1CBB1C7DCF88AC4E
:100FA00099ACAAACBBAC880C991CAA1CBB1C880CC5
:100FB000991CAA1CBB1C70CF123178F500E188ACDB
:100FC00099ACAAACBBAC880C991CAA1CBB1C880CA5
:100FD000991CAA1CBB1C880C991CAA1CBB1C880C45
:100FE000991CAA1CBB1C8CCF88AC99ACAAACBBAC1E
:100FF000880C991CAA1CBB1C4FCF203308F044C09E
:1010000087E093CD88AC99ACAAACBBACB501A40188
:1010100089A924DA21E02FA7C5CD123208F062C0D9
:1010200008E088AC99ACAAACBBAC880C991CAA1C93
:10103000BB1C880C991CAA1CBB1C880C991CAA1CE4
:10104000BB1C5ECF88AC99ACAAACBBACB694A794E1
:1010500097948794DBCF88AC99ACAAACBBACB69420
:10106000A79497948794B694A79497948794CECF97
:1010700088AC99ACAAACBBAC83E0B694A794979427
:1010800087948A95D1F7C2CF2F3308F05CC086E0F1
:101090004CCD88AC99ACAAACBBACB4E0B694A794E8
:1010A00097948794BA95D1F734E6830E911CA11CCE
:1010B000B11CB501A40189A9D1D941E04FA772CDD6
:1010C0006B2E772461940CF470949301442737FDC0
:1010D0004095542F68AD79AD8AAD9BAD2ED14901B5
:1010E0005A0157CD103308F04DC007E081E0800F62
:1010F000833020F10E3FC1F10C3F49F1083F09F464
:1011000083C0003F09F443C007FD6CC0602F772700
:1011100067FD7095872F972F28AD39AD4AAD5BAD30
:1011200030D1822E932EA42EB52EB501A40189A90B
:1011300095D90DA71AAB22E02BABEACE88AC99ACBF
:10114000AAACBBACDDCE2D34C0F485E0EECC88ACCF
:1011500099ACAAACBBACB694A79497948794B69478
:10116000A79497948794CCCE88AC99ACAAACBBAC2E
:10117000B694A79497948794C3CE2B3508F050C0AB
:1011800084E0D3CC1F3308F04FC006E0AFCF88AC6B
:1011900099ACAAACBBAC04E0B694A794979487949E
:1011A0000A95D1F724E6820E911CA11CB11CB50151
:1011B000A40189A953D93DA5303F81F0E0EFEDA707
:1011C0001AABF2E0FBAB00E010E0C12CD12C7601B1
:1011D0005AA8452C512C5FAA4EAA75CC1AAB52E0E6
:1011E0005BAB96CE402F552741950CF450959A0154
:1011F000442737FD4095542F68AD79AD8AAD9BAD3E
:101200009CD049015A0191CF88AC99ACAAACBBAC37
:1012100083E0B694A794979487948A95D1F770CE7B
:10122000293630F483E081CC1D3430F405E05ECF04
:10123000273790F482E079CC1B35A0F504E088AC28
:1012400099ACAAACBBAC880C991CAA1CBB1C880C22
:10125000991CAA1CBB1C54CE822F9ADB803409F047
:1012600064CC53014201880C991CAA1CBB1C880C3D
:10127000991CAA1CBB1C880C991CAA1CBB1C880CA2
:10128000991CAA1CBB1C880C991CAA1CBB1C880C92
:10129000991CAA1CBB1CB501A40189A9DFD830E4A4
:1012A0003DA780CC193610F403E020CF173750F457
:1012B00002E088AC99ACAAACBBAC880C991CAA1C07
:1012C000BB1C1ECE812F64DB082F803431F588AC27
:1012D00099ACAAACBBAC880C991CAA1CBB1C880C92
:1012E000991CAA1CBB1C880C991CAA1CBB1C880C32
:1012F000991CAA1CBB1C880C991CAA1CBB1C880C22
:10130000991CAA1CBB1CB501A40189A9A7D820E47B
:101310002DA71AAB32E03BABFBCD803209F4D8CD20
:10132000803109F44CCE883009F47BCE843009F446
:1013300086CF823009F0DACEBCCFA1E21A2EAA1BEA
:10134000BB1BFD010DC0AA1FBB1FEE1FFF1FA21775
:10135000B307E407F50720F0A21BB30BE40BF50B72
:10136000661F771F881F991F1A9469F760957095FB
:10137000809590959B01AC01BD01CF0108956894C3
:101380000013E894A0E0B0E0E7ECF9E01DC0EFEF57
:10139000E7F959016A015E23550FEE08FE2C87011B
:1013A0009B01AC019E23990F660B762FCB013BD09E
:1013B000CDB7DEB7EAE024C02F923F924F925F9202
:1013C0006F927F928F929F92AF92BF92CF92DF9255
:1013D000EF92FF920F931F93CF93DF93CDB7DEB7BA
:1013E000CA1BDB0B0FB6F894DEBF0FBECDBF09944E
:1013F0002A88398848885F846E847D848C849B84A5
:10140000AA84B984C884DF80EE80FD800C811B81B2
:10141000AA81B981CE0FD11D0FB6F894DEBF0FBEE1
:10142000CDBFED010895DF93CF939F92A0E49A2E54
:101430000024D001E001F00116950795F794E79498
:10144000D794C794B794A79448F41068A20FB31F19
:10145000C41FD51FE61FF71F081E191E220F331FBA
:10146000441F551F661F771F881F991F9A9421F7E5
:101470009D01AE01BF01C00111249F90CF91DF916A
:061480000895F894FFCF6F
:10148600F0F4F8F9FAFBFCFDFE0102030405060779
:04149600081020001A
:00000001FF
