:100000000EC0E0C027C026C025C025C023C022C026
:1000100021C020C01FC01EC01DC01CC01BC0112499
:100020001FBECFE5D2E0DEBFCDBF10E0A0E6B0E05E
:10003000E6E2F4E102C005900D92A437B107D9F7CA
:1000400020E0A4E7B0E001C01D92A538B207E1F7B7
:10005000C5D4E7C9D5CF1F920F920FB60F921124C6
:100060008F939F93AF93BF93809180009091810075
:10007000A0918200B09183000196A11DB11D8093D3
:10008000800090938100A0938200B09383008091C0
:10009000780090917900A0917A00B0917B00019650
:1000A000A11DB11D8093780090937900A0937A00F0
:1000B000B0937B0080917C0090917D00A0917E00A8
:1000C000B0917F000196A11DB11D80937C0090939B
:1000D0007D00A0937E00B0937F00BF91AF919F9170
:1000E0008F910F900FBE0F901F901895F8948091EC
:1000F0007C0090917D00A0917E00B0917F0022B79E
:1001000078946627782F892F9A2F622B0895F89478
:100110008091800090918100A0918200B091830035
:1001200022B778946627782F892F9A2F622B08950B
:10013000F8948091780090917900A0917A00B09124
:100140007B0022B778946627782F892F9A2F622B0D
:100150000895F8941ABC82E083BF12BE89B782600A
:1001600089BF10927C0010927D0010927E00109248
:100170007F001092800010928100109282001092F5
:100180008300109278001092790010927A001092F9
:100190007B0078940895BA98C298B99AB898C09894
:1001A000089587B3837F87BB88B3837F88BB88E14B
:1001B00084BB80E886B983E287B986B1876086B957
:1001C000369A08951F920F920FB60F9211242F9313
:1001D0008F939F93AF93BF93B29B1EC0809180007B
:1001E00090918100A0918200B091830022B7BA2F34
:1001F000A92F982F8827822B8093740090937500E5
:10020000A0937600B0937700109280001092810046
:100210001092820010928300BF91AF919F918F91B5
:100220002F910F900FBE0F901F90189583E085BF00
:1002300080E48BBF0895863010F480E20895823107
:1002400010F480E10895823210F488E0089580333C
:1002500010F487E008958F3310F486E008958D340C
:1002600010F485E008958B3510F484E00895893604
:1002700010F483E00895873710F482E0089588C36E
:10028000CF92DF92EF92FF929A01AB01803409F492
:1002900043C0803209F45FC0803109F477C08830F0
:1002A00041F1843009F489C0823009F491C091E0B1
:1002B000980F933008F493C08E3F09F4A1C08C3F8F
:1002C00009F4A5C0883F09F4ADC0803F09F48AC095
:1002D00087FDB2C0682F772767FD7095872F972F0E
:1002E00020D8A32FF42FE52F622F7A2F8F2F9E2F48
:1002F0000EC0CA01B901660F771F881F991F660FCC
:10030000771F881F991F660F771F881F991FFF90FF
:10031000EF90DF90CF900895CA01B901660F771F63
:10032000881F991F660F771F881F991F660F771FF9
:10033000881F991F660F771F881F991F660F771FE9
:10034000881F991F660F771F881F991FFF90EF90D6
:10035000DF90CF900895CA01B901660F771F881FFB
:10036000991F660F771F881F991F660F771F881FB9
:10037000991F660F771F881F991F660F771F881FA9
:10038000991FFF90EF90DF90CF900895CA01B901B7
:10039000660F771F881F991F660F771F881F991F89
:1003A000660F771F881F991F660F771F881F991F79
:1003B000FF90EF90DF90CF900895CA01B901660FCA
:1003C000771F881F991F660F771F881F991F9FCF60
:1003D000CA01B901660F771F881F991F98CFCA01FC
:1003E000B90195CFCA01B90124E096958795779513
:1003F00067952A95D1F76C597F4F8F4F9F4F87CFC5
:10040000CA01B901969587957795679580CFCA01FE
:10041000B901969587957795679596958795779580
:10042000679575CFCA01B90133E0969587957795A1
:1004300067953A95D1F76BCF682F772761950CF4C4
:1004400070956B01EE24D7FCE094FE2CCA01B90133
:10045000A701960142D7CA01B90159CFCF92DF92C5
:10046000EF92FF920F931F938A019B01E82FE09573
:10047000E430F8F4013345E714072105310508F4A9
:100480004BC060E177E280E090E000511742210923
:100490003109EA3F28F4061717072807390710F42F
:1004A000C901B8011F910F91FF90EF90DF90CF909D
:1004B0000895EE30B0F4CB01BA01F5E0969587953A
:1004C00077956795FA95D1F7013345E7140721052C
:1004D000310540F3603147E274078105910588F2E8
:1004E000D4CFE83148F1E23288F5CB01BA01B5E06A
:1004F0009695879577956795BA95D1F768017901B3
:1005000044E0F694E794D794C7944A95D1F76C0DDC
:100510007D1D8E1D9F1DD8CFC901B801A6E09695FF
:10052000879577956795AA95D1F71F910F91FF90C1
:10053000EF90DF90CF900895CB01BA0154E09695EB
:100540008795779567955A95D1F7BECFEC32C8F06D
:10055000E63308F5CB01BA0155E096958795779576
:1005600067955A95D1F768017901F3E0F694E7941D
:10057000D794C794FA95D1F76C0D7D1D8E1D9F1DE4
:10058000A3CFCB01BA01A3E09695879577956795A0
:10059000AA95D1F799CFE034B8F4CB01BA01B4E011
:1005A0009695879577956795BA95D1F76801790102
:1005B00043E0F694E794D794C7944A95D1F76C0D2D
:1005C0007D1D8E1D9F1D80CFEA3420F5CB01BA0121
:1005D00054E096958795779567955A95D1F7680178
:1005E0007901F3E0F694E794D794C794FA95D1F79C
:1005F0006C0D7D1D8E1D9F1D68017901A5E0F6948F
:10060000E794D794C794AA95D1F76C0D7D1D8E1DE4
:100610009F1D5ACFE53558F4CB01BA0196958795C1
:100620007795679596958795779567954DCFEE3534
:10063000C0F4CB01BA01A4E09695879577956795AC
:10064000AA95D1F768017901F694E794D794C794F5
:10065000F694E794D794C7946C0D7D1D8E1D9F1D55
:1006600033CFE836C0F4CB01BA0153E096958795B5
:10067000779567955A95D1F768017901F694E794D3
:10068000D794C794F694E794D794C7946C0D7D1DC6
:100690008E1D9F1D19CFE23728F5CB01BA01A3E0CB
:1006A0009695879577956795AA95D1F76801790111
:1006B000F694E794D794C794F694E794D794C794A4
:1006C0006C0D7D1D8E1D9F1D6801790144E0F6941F
:1006D000E794D794C7944A95D1F76C0D7D1D8E1D74
:1006E0009F1DF2CEEC3838F4CB01BA019695879570
:1006F00077956795E9CEE639A0F4CB01BA0145E0DC
:1007000096958795779567954A95D1F76801790110
:10071000F694E794D794C7946C0D7D1D8E1D9F1D94
:10072000D3CEE03AA0F4CB01BA01A4E09695879528
:1007300077956795AA95D1F768017901F694E794C2
:10074000D794C7946C0D7D1D8E1D9F1DBDCEEA3ABA
:1007500008F5CB01BA01F4E09695879577956795F2
:10076000FA95D1F768017901F694E794D794C79484
:100770006C0D7D1D8E1D9F1D68017901A5E0F6940D
:10078000E794D794C794AA95D1F76C0D7D1D8E1D63
:100790009F1D9ACEE43BA0F4CB01BA0143E09695AD
:1007A0008795779567954A95D1F768017901F69411
:1007B000E794D794C7946C0D7D1D8E1D9F1D84CE2C
:1007C000EE3B50F4CB01BA01B3E09695879577954F
:1007D0006795BA95D1F7C6CFE83C08F5CB01BA01C9
:1007E00053E096958795779567955A95D1F7680167
:1007F0007901F694E794D794C7946C0D7D1D8E1DF6
:100800009F1D68017901A4E0F694E794D794C794FA
:10081000AA95D1F76C0D7D1D8E1D9F1D55CEE23D15
:1008200070F5CB01BA01F3E09695879577956795BA
:10083000FA95D1F768017901F694E794D794C794B3
:100840006C0D7D1D8E1D9F1D68017901B4E0F6942D
:10085000E794D794C794BA95D1F76C0D7D1D8E1D82
:100860009F1D6801790145E0F694E794D794C794F9
:100870004A95D1F76C0D7D1D8E1D9F1D25CEEC3D3B
:10088000A8F4CB01BA0196958795779567959695CB
:1008900087957795679568017901F694E794D794E1
:1008A000C7946C0D7D1D8E1D9F1D0ECEE63E58F427
:1008B000CB01BA019695879577956795969587951B
:1008C0007795679594CFE03F10F5CB01BA019695E7
:1008D000879577956795969587957795679568013C
:1008E0007901F694E794D794C7946C0D7D1D8E1D05
:1008F0009F1D6801790153E0F694E794D794C7945B
:100900005A95D1F76C0D7D1D8E1D9F1DDDCDEA3FE3
:1009100078F5CB01BA019695879577956795969569
:1009200087957795679568017901F694E794D79450
:10093000C7946C0D7D1D8E1D9F1D68017901F3E02C
:10094000F694E794D794C794FA95D1F76C0D7D1D72
:100950008E1D9F1D68017901A4E0F694E794D79459
:10096000C794AA95D1F76C0D7D1D8E1D9F1DACCD32
:1009700085E076956795579547958A95D1F76801F3
:100980007901C41AD50AE60AF70AC701B6019CCD57
:10099000843890F0813990F08F3990F08D3A90F052
:1009A0008B3B90F0893C90F0883D90F0863E90F033
:1009B000833F90F484EF089581E008958EEF0895C9
:1009C0008DEF08958CEF08958BEF08958AEF0895C9
:1009D00089EF089588EF089580EF0895CF93DF930E
:1009E000CDB7DEB7E7970FB6F894DEBF0FBECDBF29
:1009F00083E19E012C5E3F4F38A72FA3D901E82F3A
:100A00001D92EA95E9F7E0E6F0E0DE01119601902B
:100A10000D928A95E1F7F8941ABC82E083BF12BE6A
:100A200089B7826089BF10927C0010927D0010927D
:100A30007E0010927F001092800010928100109230
:100A40008200109283001092780010927900109228
:100A50007A0010927B0078949EDB83E085BF80E46F
:100A60008BBF9FDB8FE19EE40197F1F700C0000090
:100A7000C19893E09BABA1E0A9A7BFE7B9ABEFE7B3
:100A8000EAABF1E0FBA71CA61AA600E010E0C12C1F
:100A9000D12C760160E070E0CB01812C912C5401C7
:100AA0001DA61EA61FA618AA9E01295D3F4F19016B
:100AB0004FE750E05FAB4EABAFE7B0E0BDABACABE8
:100AC000B29B8DC04090740050907500609076008D
:100AD0007090770045284628472809F480C0809107
:100AE000740090917500A0917600B09177008DA769
:100AF0009EA7AFA7B8AB1092740010927500109229
:100B0000760010927700F894109278001092790095
:100B100010927A0010927B0078949AA9963008F08F
:100B200057C180E289A7803209F45AC1E82F803189
:100B300009F4CAC1883009F4E1C12E2F843009F4C8
:100B4000EEC1823009F410C2822F8F5F833008F427
:100B500019C249A54E3F09F435C24C3F09F43BC2C6
:100B6000483F09F445C2403F09F453C247FD68C2FB
:100B7000642F772767FD7095872F972F2DA53EA5AA
:100B80004FA558A9CED3822E932EA42EB52EB501F3
:100B9000A40189A963DCA9A5A23014F4B1E0BBA724
:100BA000FE017496DE01119649A5242F332727FDF7
:100BB00030952B013C014BA590819F5F90838D91D7
:100BC000981730F090E02817390709F464C01082B4
:100BD0003196E215F30581F7C301B2014BA7B09B33
:100BE000D1C05AA55111DEC0C1981C8A1D8A1E8A27
:100BF0001F8A188E198E1A8E1B8E1C8E1D8E1E8EAD
:100C00001F8E18A219A21AA21BA21CA21DA21EA20C
:100C1000F894C0907800D0907900E0907A00F0903D
:100C20007B0022B7FE2CED2CDC2CCC24C22A78943D
:100C30001BA6A1E0ACA7B1E0BAA7F9A5F2300CF46D
:100C4000A6C08C149D04AE04BF0418F4C12CD12C92
:100C50007601F894409078005090790060907A0086
:100C600070907B0022B77894762C652C542C442409
:100C7000422A4C145D046E047F0478F03BA53323B4
:100C800061F01BA681149104A104B10471F451E038
:100C90005CA7C19845C041E09ACF81149104A1049A
:100CA000B104B9F34CA5442359F0F89410927C0098
:100CB00010927D0010927E0010927F007894C19A6D
:100CC000F89440907C0050907D0060907E00709081
:100CD0007F0022B7762C652C542C4424422A789429
:100CE000461657066806790608F0C19884149504DC
:100CF000A604B70408F059C0481859086A087B08C8
:100D0000452C562C672C7724F89440927C00509206
:100D10007D0060927E0070927F007894C19A1CA63C
:100D20000F5F1F4F053611050CF4CACE349BC8CE99
:100D3000349A15B15BA9533009F46FC043E247B947
:100D4000369A59A91517C0F52CA93DA9211B3109BF
:100D50002901662457FC6094762CB4E04B165104AC
:100D60006104710420F1B501A401812F77DB19AB77
:100D7000E3E0EBAB00E010E039A9232F30E03DAB1E
:100D80002CAB9ECE1AA6F9A5F2300CF05ACF2DA5A9
:100D90003EA54FA558A92C153D054E055F0508F445
:100DA00055CF57CFE1E0EAA748CF1CA6B9CF43E023
:100DB0004BAB00E010E084CE212F30E0ACA9BDA900
:100DC0002A1B3B0B2901662457FC6094762CC5CF67
:100DD000923108F08EC080E189A7803209F0A6CE5A
:100DE0008DA49EA4AFA4B8A8880C991CAA1CBB1CF7
:100DF000880C991CAA1CBB1C880C991CAA1CBB1C27
:100E0000880C991CAA1CBB1C880C991CAA1CBB1C16
:100E1000B501A40189A922DBC3CEA2E2A7B9369A03
:100E2000BAA91B17D8F52EA93FA9211B3109290101
:100E3000662457FC6094762CF2E04F16510461044E
:100E40007104E8F1163008F077C000E28DA49EA48A
:100E5000AFA4B8A8880C991CAA1CBB1C880C991CB0
:100E6000AA1CBB1C880C991CAA1CBB1C880C991CB6
:100E7000AA1CBB1C880C991CAA1CBB1CB501A40194
:100E800089A9ECDA09A71AABA2E0ABAB00E010E04D
:100E9000FAA9EF2FF0E0FFABEEAB12CE212F30E03E
:100EA000EEA9FFA92E1B3F0B2901662457FC609475
:100EB000762CF2E04F1651046104710418F6B2E08A
:100EC000BBAB00E010E0FCCD8DA49EA4AFA4B8A8FD
:100ED000880C991CAA1CBB1C880C991CAA1CBB1C46
:100EE000880C991CAA1CBB1C880C991CAA1CBB1C36
:100EF0008FCF923208F041C088E014CE8DA49EA41A
:100F0000AFA4B8A8880C991CAA1CBB1C880C991CFF
:100F1000AA1CBB1C880C991CAA1CBB1C79CF8DA4D5
:100F20009EA4AFA4B8A8880C991CAA1CBB1C880C52
:100F3000991CAA1CBB1C6CCF123178F500E18DA462
:100F40009EA4AFA4B8A8880C991CAA1CBB1C880C32
:100F5000991CAA1CBB1C880C991CAA1CBB1C880CC5
:100F6000991CAA1CBB1C8ACF8DA49EA4AFA4B8A8B0
:100F7000880C991CAA1CBB1C4BCF903308F044C0B2
:100F800087E0D0CD8DA49EA4AFA4B8A8B501A401DC
:100F900089A964DA41E04BA703CE123208F061C0A0
:100FA00008E08DA49EA4AFA4B8A8880C991CAA1C24
:100FB000BB1C880C991CAA1CBB1C880C991CAA1C65
:100FC000BB1C5CCF8DA49EA4AFA4B8A8B694A79474
:100FD00097948794DBCF8DA49EA4AFA4B8A8B694B1
:100FE000A79497948794B694A79497948794CECF18
:100FF0008DA49EA4AFA4B8A873E0B694A7949794C8
:1010000087947A95D1F7C2CF9F3308F063C086E00A
:1010100089CD8DA49EA4AFA4B8A864E0B694A7948B
:10102000979487946A95D1F7A4E68A0E911CA11C27
:10103000B11CB501A40189A911DAB1E0BBA7B0CDFB
:10104000552741950CF450959A01442737FD40955A
:10105000542F6DA57EA58FA598A93FD149015A01AE
:1010600096CD103308F055C007E081E0800F833043
:1010700060F10E3F09F43FC00C3F81F1083F09F4D5
:1010800091C0003F09F44AC007FD7AC0602F77275E
:1010900067FD7095872F972F2DA53EA54FA558A9C1
:1010A00040D1822E932EA42EB52EB501A40189A97C
:1010B000D5D909A71AAB22E02BAB00E010E05AA962
:1010C000452F50E05FAB4EABFBCC8DA49EA4AFA4EC
:1010D000B8A8D4CE9D34C0F485E024CD8DA49EA4C0
:1010E000AFA4B8A8B694A79497948794B694A794FD
:1010F00097948794C3CE8DA49EA4AFA4B8A8B694A9
:10110000A79497948794BACE9B3508F057C084E093
:1011100009CD1F3308F056C006E0A7CF8DA49EA4CA
:10112000AFA4B8A8B4E0B694A79497948794BA955E
:10113000D1F784E6880E911CA11CB11CB501A40155
:1011400089A98CD9A9A5A03F81F0E0EFE9A71AAB46
:10115000F2E0FBAB00E010E0C12CD12C76013AA903
:10116000232F30E03FAB2EABABCC1AABF2E0FBABA6
:1011700000E010E03AA9232F30E03FAB2EABA0CC2B
:10118000E02FFF27E1950CF4F0959F01442737FDF0
:101190004095542F6DA57EA58FA598A99ED0490195
:1011A0005A0183CF8DA49EA4AFA4B8A883E0B694BF
:1011B000A794979487948A95D1F760CE993630F4A6
:1011C00083E0B0CC1D3430F405E04FCF973790F476
:1011D00082E0A8CC1B35B0F504E08DA49EA4AFA49A
:1011E000B8A8880C991CAA1CBB1C880C991CAA1CAA
:1011F000BB1C44CE892FCCDB803409F093CC8DA46A
:101200009EA4AFA4B8A8880C991CAA1CBB1C880C6F
:10121000991CAA1CBB1C880C991CAA1CBB1C880C02
:10122000991CAA1CBB1C880C991CAA1CBB1C880CF2
:10123000991CAA1CBB1CB501A40189A90FD9A0E463
:10124000A9A7AECC193610F403E00FCF173750F42E
:1012500002E08DA49EA4AFA4B8A8880C991CAA1C77
:10126000BB1C0CCE812F94DB082F803431F58DA46C
:101270009EA4AFA4B8A8880C991CAA1CBB1C880CFF
:10128000991CAA1CBB1C880C991CAA1CBB1C880C92
:10129000991CAA1CBB1C880C991CAA1CBB1C880C82
:1012A000991CAA1CBB1CB501A40189A9D7D820E4AC
:1012B00029A71AAB32E03BAB00CF803209F4C6CD90
:1012C000803109F43CCE883009F46BCE843009F4C7
:1012D00084CF823009F0C9CEBCCFA1E21A2EAA1B5E
:1012E000BB1BFD010DC0AA1FBB1FEE1FFF1FA217D6
:1012F000B307E407F50720F0A21BB30BE40BF50BD3
:10130000661F771F881F991F1A9469F7609570955B
:10131000809590959B01AC01BD01CF010895689423
:101320000013E894A0E0B0E0E7E9F9E01DC0EFEFBA
:10133000E7F959016A015E23550FEE08FE2C87017B
:101340009B01AC019E23990F660B762FCB013BD0FE
:10135000CDB7DEB7EAE024C02F923F924F925F9262
:101360006F927F928F929F92AF92BF92CF92DF92B5
:10137000EF92FF920F931F93CF93DF93CDB7DEB71A
:10138000CA1BDB0B0FB6F894DEBF0FBECDBF0994AE
:101390002A88398848885F846E847D848C849B8405
:1013A000AA84B984C884DF80EE80FD800C811B8113
:1013B000AA81B981CE0FD11D0FB6F894DEBF0FBE42
:1013C000CDBFED010895DF93CF939F92A0E49A2EB5
:1013D0000024D001E001F00116950795F794E794F9
:1013E000D794C794B794A79448F41068A20FB31F7A
:1013F000C41FD51FE61FF71F081E191E220F331F1B
:10140000441F551F661F771F881F991F9A9421F745
:101410009D01AE01BF01C00111249F90CF91DF91CA
:061420000895F894FFCFCF
:10142600F0F4F8F9FAFBFCFDFE01020304050607D9
:04143600081020007A
:00000001FF
